{
  "contractName": "USDOracle",
  "abi": [
    {
      "inputs": [],
      "stateMutability": "nonpayable",
      "type": "constructor"
    },
    {
      "inputs": [],
      "name": "latestPrice",
      "outputs": [
        {
          "internalType": "uint256",
          "name": "",
          "type": "uint256"
        }
      ],
      "stateMutability": "view",
      "type": "function"
    }
  ],
  "bytecode": "0x6080604052348015600f57600080fd5b50614e206000819055506084806100276000396000f3fe6080604052348015600f57600080fd5b506004361060285760003560e01c8063a3e6ba9414602d575b600080fd5b60336049565b6040518082815260200191505060405180910390f35b60009056fea26469706673582212208e4165ebe15b1232538983080fff895a91caaba92e3359e116a3cc186a207b1e64736f6c63430006070033",
  "immutableReferences": {},
  "source": "pragma solidity ^0.6.7;\n\ncontract USDOracle {\n\n    uint price;\n\n    constructor() public {\n        \n        price = 200 * 10**2;\n    }\n\n    function latestPrice() public view returns (uint) {\n\n    }\n}",
  "sourcePath": "/Users/alexroan/Documents/Projects/Blockchain/DApps/usm/contracts/USDOracle.sol",
  "compiler": {
    "name": "solc",
    "version": "0.6.7+commit.b8d736ae.Linux.g++"
  },
  "schemaVersion": "3.2.3",
  "updatedAt": "2020-08-01T10:45:07.193Z",
  "devdoc": {
    "methods": {}
  },
  "userdoc": {
    "methods": {}
  }
}