{
  "contractName": "USDOracle",
  "abi": [
    {
      "inputs": [],
      "stateMutability": "nonpayable",
      "type": "constructor"
    },
    {
      "inputs": [],
      "name": "latestPrice",
      "outputs": [
        {
          "internalType": "uint256",
          "name": "",
          "type": "uint256"
        }
      ],
      "stateMutability": "view",
      "type": "function"
    },
    {
      "inputs": [],
      "name": "decimalShift",
      "outputs": [
        {
          "internalType": "uint256",
          "name": "",
          "type": "uint256"
        }
      ],
      "stateMutability": "view",
      "type": "function"
    }
  ],
  "bytecode": "0x608060405234801561001057600080fd5b5060026001819055506161a860008190555060b8806100306000396000f3fe6080604052348015600f57600080fd5b506004361060325760003560e01c8063a3e6ba94146037578063dae5f0fd146053575b600080fd5b603d606f565b6040518082815260200191505060405180910390f35b60596078565b6040518082815260200191505060405180910390f35b60008054905090565b600060015490509056fea264697066735822122034049b884b7f1f238dc5ba35b99fc5fde2f369b1ae00a895506239176611176664736f6c63430006070033",
  "immutableReferences": {},
  "source": "pragma solidity ^0.6.7;\n\nimport \"./IOracle.sol\";\nimport \"@openzeppelin/contracts/math/SafeMath.sol\";\n\ncontract USDOracle is IOracle{\n    using SafeMath for uint;\n\n    uint price;\n    uint decShift;\n\n    constructor() public {\n        decShift = 2;\n        // $250.00\n        price = 25000;\n    }\n\n    function latestPrice() external override view returns (uint) {\n        return price;\n    }\n\n    function decimalShift() external override view returns (uint) {\n        return decShift;\n    }\n}",
  "sourcePath": "/Users/alexroan/Documents/Projects/Blockchain/DApps/usm/contracts/USDOracle.sol",
  "compiler": {
    "name": "solc",
    "version": "0.6.7+commit.b8d736ae.Linux.g++"
  },
  "schemaVersion": "3.2.3",
  "updatedAt": "2020-08-01T13:40:59.298Z",
  "devdoc": {
    "methods": {}
  },
  "userdoc": {
    "methods": {}
  }
}