{
  "contractName": "USDOracle",
  "abi": [
    {
      "inputs": [],
      "stateMutability": "nonpayable",
      "type": "constructor"
    },
    {
      "inputs": [],
      "name": "latestPrice",
      "outputs": [
        {
          "internalType": "uint256",
          "name": "",
          "type": "uint256"
        }
      ],
      "stateMutability": "view",
      "type": "function"
    },
    {
      "inputs": [],
      "name": "decimalShift",
      "outputs": [
        {
          "internalType": "uint256",
          "name": "",
          "type": "uint256"
        }
      ],
      "stateMutability": "view",
      "type": "function"
    }
  ],
  "bytecode": "0x608060405234801561001057600080fd5b506002600181905550600060c8905061003b600154600a0a8261004760201b61008a1790919060201c565b600081905550506100cd565b60008083141561005a57600090506100c7565b600082840290508284828161006b57fe5b04146100c2576040517f08c379a00000000000000000000000000000000000000000000000000000000081526004018080602001828103825260218152602001806102436021913960400191505060405180910390fd5b809150505b92915050565b610167806100dc6000396000f3fe608060405234801561001057600080fd5b50600436106100365760003560e01c8063a3e6ba941461003b578063dae5f0fd14610059575b600080fd5b610043610077565b6040518082815260200191505060405180910390f35b610061610080565b6040518082815260200191505060405180910390f35b60008054905090565b6000600154905090565b60008083141561009d576000905061010a565b60008284029050828482816100ae57fe5b0414610105576040517f08c379a00000000000000000000000000000000000000000000000000000000081526004018080602001828103825260218152602001806101116021913960400191505060405180910390fd5b809150505b9291505056fe536166654d6174683a206d756c7469706c69636174696f6e206f766572666c6f77a26469706673582212207d96979a8dc30be1c1881ada66d386f063e4da0862b3fd0ec4e03481c96ae3d064736f6c63430006070033536166654d6174683a206d756c7469706c69636174696f6e206f766572666c6f77",
  "immutableReferences": {},
  "source": "pragma solidity ^0.6.7;\n\nimport \"./IOracle.sol\";\nimport \"@openzeppelin/contracts/math/SafeMath.sol\";\n\ncontract USDOracle is IOracle{\n    using SafeMath for uint;\n\n    uint price;\n    uint decShift;\n\n    constructor() public {\n        decShift = 2;\n        uint testPrice = 200;\n        price = testPrice.mul(10**decShift);\n    }\n\n    function latestPrice() external override view returns (uint) {\n        return price;\n    }\n\n    function decimalShift() external override view returns (uint) {\n        return decShift;\n    }\n}",
  "sourcePath": "/Users/alexroan/Documents/Projects/Blockchain/DApps/usm/contracts/USDOracle.sol",
  "compiler": {
    "name": "solc",
    "version": "0.6.7+commit.b8d736ae.Linux.g++"
  },
  "schemaVersion": "3.2.3",
  "updatedAt": "2020-08-01T11:29:43.016Z",
  "devdoc": {
    "methods": {}
  },
  "userdoc": {
    "methods": {}
  }
}