{
  "contractName": "USDOracle",
  "abi": [
    {
      "inputs": [],
      "stateMutability": "nonpayable",
      "type": "constructor"
    },
    {
      "inputs": [],
      "name": "latestPrice",
      "outputs": [
        {
          "internalType": "uint256",
          "name": "",
          "type": "uint256"
        }
      ],
      "stateMutability": "view",
      "type": "function"
    }
  ],
  "bytecode": "0x6080604052348015600f57600080fd5b50614e206000819055506088806100276000396000f3fe6080604052348015600f57600080fd5b506004361060285760003560e01c8063a3e6ba9414602d575b600080fd5b60336049565b6040518082815260200191505060405180910390f35b6000805490509056fea264697066735822122059bd54e41e4f48444b45dc00243fc11a48194cdd64b6b95e3136a3c185c4f48064736f6c63430006070033",
  "immutableReferences": {},
  "source": "pragma solidity ^0.6.7;\n\ncontract USDOracle {\n\n    uint price;\n\n    constructor() public {\n        price = 200*10**2;\n    }\n\n    function latestPrice() public view returns (uint) {\n        return price;\n    }\n}",
  "sourcePath": "/Users/alexroan/Documents/Projects/Blockchain/DApps/usm/contracts/USDOracle.sol",
  "compiler": {
    "name": "solc",
    "version": "0.6.7+commit.b8d736ae.Linux.g++"
  },
  "schemaVersion": "3.2.3",
  "updatedAt": "2020-08-01T11:00:35.736Z",
  "devdoc": {
    "methods": {}
  },
  "userdoc": {
    "methods": {}
  }
}