{
  "contractName": "USM",
  "abi": [
    {
      "inputs": [
        {
          "internalType": "address",
          "name": "_oracle",
          "type": "address"
        }
      ],
      "stateMutability": "nonpayable",
      "type": "constructor"
    },
    {
      "anonymous": false,
      "inputs": [
        {
          "indexed": true,
          "internalType": "address",
          "name": "owner",
          "type": "address"
        },
        {
          "indexed": true,
          "internalType": "address",
          "name": "spender",
          "type": "address"
        },
        {
          "indexed": false,
          "internalType": "uint256",
          "name": "value",
          "type": "uint256"
        }
      ],
      "name": "Approval",
      "type": "event"
    },
    {
      "anonymous": false,
      "inputs": [
        {
          "indexed": true,
          "internalType": "address",
          "name": "from",
          "type": "address"
        },
        {
          "indexed": true,
          "internalType": "address",
          "name": "to",
          "type": "address"
        },
        {
          "indexed": false,
          "internalType": "uint256",
          "name": "value",
          "type": "uint256"
        }
      ],
      "name": "Transfer",
      "type": "event"
    },
    {
      "inputs": [
        {
          "internalType": "address",
          "name": "owner",
          "type": "address"
        },
        {
          "internalType": "address",
          "name": "spender",
          "type": "address"
        }
      ],
      "name": "allowance",
      "outputs": [
        {
          "internalType": "uint256",
          "name": "",
          "type": "uint256"
        }
      ],
      "stateMutability": "view",
      "type": "function",
      "constant": true
    },
    {
      "inputs": [
        {
          "internalType": "address",
          "name": "spender",
          "type": "address"
        },
        {
          "internalType": "uint256",
          "name": "amount",
          "type": "uint256"
        }
      ],
      "name": "approve",
      "outputs": [
        {
          "internalType": "bool",
          "name": "",
          "type": "bool"
        }
      ],
      "stateMutability": "nonpayable",
      "type": "function"
    },
    {
      "inputs": [
        {
          "internalType": "address",
          "name": "account",
          "type": "address"
        }
      ],
      "name": "balanceOf",
      "outputs": [
        {
          "internalType": "uint256",
          "name": "",
          "type": "uint256"
        }
      ],
      "stateMutability": "view",
      "type": "function",
      "constant": true
    },
    {
      "inputs": [],
      "name": "decimals",
      "outputs": [
        {
          "internalType": "uint8",
          "name": "",
          "type": "uint8"
        }
      ],
      "stateMutability": "view",
      "type": "function",
      "constant": true
    },
    {
      "inputs": [
        {
          "internalType": "address",
          "name": "spender",
          "type": "address"
        },
        {
          "internalType": "uint256",
          "name": "subtractedValue",
          "type": "uint256"
        }
      ],
      "name": "decreaseAllowance",
      "outputs": [
        {
          "internalType": "bool",
          "name": "",
          "type": "bool"
        }
      ],
      "stateMutability": "nonpayable",
      "type": "function"
    },
    {
      "inputs": [],
      "name": "ethPool",
      "outputs": [
        {
          "internalType": "uint256",
          "name": "",
          "type": "uint256"
        }
      ],
      "stateMutability": "view",
      "type": "function",
      "constant": true
    },
    {
      "inputs": [
        {
          "internalType": "address",
          "name": "spender",
          "type": "address"
        },
        {
          "internalType": "uint256",
          "name": "addedValue",
          "type": "uint256"
        }
      ],
      "name": "increaseAllowance",
      "outputs": [
        {
          "internalType": "bool",
          "name": "",
          "type": "bool"
        }
      ],
      "stateMutability": "nonpayable",
      "type": "function"
    },
    {
      "inputs": [],
      "name": "name",
      "outputs": [
        {
          "internalType": "string",
          "name": "",
          "type": "string"
        }
      ],
      "stateMutability": "view",
      "type": "function",
      "constant": true
    },
    {
      "inputs": [],
      "name": "symbol",
      "outputs": [
        {
          "internalType": "string",
          "name": "",
          "type": "string"
        }
      ],
      "stateMutability": "view",
      "type": "function",
      "constant": true
    },
    {
      "inputs": [],
      "name": "totalSupply",
      "outputs": [
        {
          "internalType": "uint256",
          "name": "",
          "type": "uint256"
        }
      ],
      "stateMutability": "view",
      "type": "function",
      "constant": true
    },
    {
      "inputs": [
        {
          "internalType": "address",
          "name": "recipient",
          "type": "address"
        },
        {
          "internalType": "uint256",
          "name": "amount",
          "type": "uint256"
        }
      ],
      "name": "transfer",
      "outputs": [
        {
          "internalType": "bool",
          "name": "",
          "type": "bool"
        }
      ],
      "stateMutability": "nonpayable",
      "type": "function"
    },
    {
      "inputs": [
        {
          "internalType": "address",
          "name": "sender",
          "type": "address"
        },
        {
          "internalType": "address",
          "name": "recipient",
          "type": "address"
        },
        {
          "internalType": "uint256",
          "name": "amount",
          "type": "uint256"
        }
      ],
      "name": "transferFrom",
      "outputs": [
        {
          "internalType": "bool",
          "name": "",
          "type": "bool"
        }
      ],
      "stateMutability": "nonpayable",
      "type": "function"
    },
    {
      "inputs": [],
      "name": "mint",
      "outputs": [],
      "stateMutability": "payable",
      "type": "function",
      "payable": true
    },
    {
      "inputs": [
        {
          "internalType": "uint256",
          "name": "_usmAmount",
          "type": "uint256"
        }
      ],
      "name": "burn",
      "outputs": [],
      "stateMutability": "nonpayable",
      "type": "function"
    },
    {
      "inputs": [],
      "name": "debtRatio",
      "outputs": [
        {
          "internalType": "uint256",
          "name": "",
          "type": "uint256"
        }
      ],
      "stateMutability": "view",
      "type": "function",
      "constant": true
    }
  ],
  "bytecode": "0x60806040523480156200001157600080fd5b506040516200244638038062002446833981810160405260208110156200003757600080fd5b81019080805190602001909291905050506040518060400160405280600b81526020017f4d696e696d616c205553440000000000000000000000000000000000000000008152506040518060400160405280600381526020017f55534d00000000000000000000000000000000000000000000000000000000008152508160039080519060200190620000cc929190620003b4565b508060049080519060200190620000e5929190620003b4565b506012600560006101000a81548160ff021916908360ff160217905550505080600560016101000a81548173ffffffffffffffffffffffffffffffffffffffff021916908373ffffffffffffffffffffffffffffffffffffffff1602179055506000600681905550620001986040518060400160405280600381526020017f4869210000000000000000000000000000000000000000000000000000000000815250620001b560201b62001c121760201c565b620001ae81620002be60201b62001d101760201c565b5062000463565b620002bb816040516024018080602001828103825283818151815260200191508051906020019080838360005b83811015620001ff578082015181840152602081019050620001e2565b50505050905090810190601f1680156200022d5780820380516001836020036101000a031916815260200191505b50925050506040516020818303038152906040527f41304fac000000000000000000000000000000000000000000000000000000007bffffffffffffffffffffffffffffffffffffffffffffffffffffffff19166020820180517bffffffffffffffffffffffffffffffffffffffffffffffffffffffff83818316178352505050506200038b60201b60201c565b50565b6200038881604051602401808273ffffffffffffffffffffffffffffffffffffffff1673ffffffffffffffffffffffffffffffffffffffff1681526020019150506040516020818303038152906040527f2c2ecbc2000000000000000000000000000000000000000000000000000000007bffffffffffffffffffffffffffffffffffffffffffffffffffffffff19166020820180517bffffffffffffffffffffffffffffffffffffffffffffffffffffffff83818316178352505050506200038b60201b60201c565b50565b60008151905060006a636f6e736f6c652e6c6f679050602083016000808483855afa5050505050565b828054600181600116156101000203166002900490600052602060002090601f016020900481019282601f10620003f757805160ff191683800117855562000428565b8280016001018555821562000428579182015b82811115620004275782518255916020019190600101906200040a565b5b5090506200043791906200043b565b5090565b6200046091905b808211156200045c57600081600090555060010162000442565b5090565b90565b611fd380620004736000396000f3fe6080604052600436106100e85760003560e01c806342966c681161008a578063a9059cbb11610059578063a9059cbb146104ff578063cea55f5714610572578063dd62ed3e1461059d578063f16673a414610622576100e8565b806342966c681461035c57806370a082311461039757806395d89b41146103fc578063a457c2d71461048c576100e8565b806318160ddd116100c657806318160ddd146101fa57806323b872dd14610225578063313ce567146102b857806339509351146102e9576100e8565b806306fdde03146100ed578063095ea7b31461017d5780631249c58b146101f0575b600080fd5b3480156100f957600080fd5b5061010261064d565b6040518080602001828103825283818151815260200191508051906020019080838360005b83811015610142578082015181840152602081019050610127565b50505050905090810190601f16801561016f5780820380516001836020036101000a031916815260200191505b509250505060405180910390f35b34801561018957600080fd5b506101d6600480360360408110156101a057600080fd5b81019080803573ffffffffffffffffffffffffffffffffffffffff169060200190929190803590602001909291905050506106ef565b604051808215151515815260200191505060405180910390f35b6101f861070d565b005b34801561020657600080fd5b5061020f61077a565b6040518082815260200191505060405180910390f35b34801561023157600080fd5b5061029e6004803603606081101561024857600080fd5b81019080803573ffffffffffffffffffffffffffffffffffffffff169060200190929190803573ffffffffffffffffffffffffffffffffffffffff16906020019092919080359060200190929190505050610784565b604051808215151515815260200191505060405180910390f35b3480156102c457600080fd5b506102cd61085d565b604051808260ff1660ff16815260200191505060405180910390f35b3480156102f557600080fd5b506103426004803603604081101561030c57600080fd5b81019080803573ffffffffffffffffffffffffffffffffffffffff16906020019092919080359060200190929190505050610874565b604051808215151515815260200191505060405180910390f35b34801561036857600080fd5b506103956004803603602081101561037f57600080fd5b8101908080359060200190929190505050610927565b005b3480156103a357600080fd5b506103e6600480360360208110156103ba57600080fd5b81019080803573ffffffffffffffffffffffffffffffffffffffff16906020019092919050505061099e565b6040518082815260200191505060405180910390f35b34801561040857600080fd5b506104116109e6565b6040518080602001828103825283818151815260200191508051906020019080838360005b83811015610451578082015181840152602081019050610436565b50505050905090810190601f16801561047e5780820380516001836020036101000a031916815260200191505b509250505060405180910390f35b34801561049857600080fd5b506104e5600480360360408110156104af57600080fd5b81019080803573ffffffffffffffffffffffffffffffffffffffff16906020019092919080359060200190929190505050610a88565b604051808215151515815260200191505060405180910390f35b34801561050b57600080fd5b506105586004803603604081101561052257600080fd5b81019080803573ffffffffffffffffffffffffffffffffffffffff16906020019092919080359060200190929190505050610b55565b604051808215151515815260200191505060405180910390f35b34801561057e57600080fd5b50610587610b73565b6040518082815260200191505060405180910390f35b3480156105a957600080fd5b5061060c600480360360408110156105c057600080fd5b81019080803573ffffffffffffffffffffffffffffffffffffffff169060200190929190803573ffffffffffffffffffffffffffffffffffffffff169060200190929190505050610ba9565b6040518082815260200191505060405180910390f35b34801561062e57600080fd5b50610637610c30565b6040518082815260200191505060405180910390f35b606060038054600181600116156101000203166002900480601f0160208091040260200160405190810160405280929190818152602001828054600181600116156101000203166002900480156106e55780601f106106ba576101008083540402835291602001916106e5565b820191906000526020600020905b8154815290600101906020018083116106c857829003601f168201915b5050505050905090565b60006107036106fc610c36565b8484610c3e565b6001905092915050565b600061071834610e35565b9050600061074f610740836103e86b033b2e3c9fd0803ce80000008161073a57fe5b04610ec4565b83610eff90919063ffffffff16565b905061076634600654610f4990919063ffffffff16565b6006819055506107763382610fd1565b5050565b6000600254905090565b6000610791848484611198565b6108528461079d610c36565b61084d85604051806060016040528060288152602001611ee760289139600160008b73ffffffffffffffffffffffffffffffffffffffff1673ffffffffffffffffffffffffffffffffffffffff1681526020019081526020016000206000610803610c36565b73ffffffffffffffffffffffffffffffffffffffff1673ffffffffffffffffffffffffffffffffffffffff168152602001908152602001600020546114599092919063ffffffff16565b610c3e565b600190509392505050565b6000600560009054906101000a900460ff16905090565b600061091d610881610c36565b846109188560016000610892610c36565b73ffffffffffffffffffffffffffffffffffffffff1673ffffffffffffffffffffffffffffffffffffffff16815260200190815260200160002060008973ffffffffffffffffffffffffffffffffffffffff1673ffffffffffffffffffffffffffffffffffffffff16815260200190815260200160002054610f4990919063ffffffff16565b610c3e565b6001905092915050565b600061093282611519565b905060006109686109598360c86b033b2e3c9fd0803ce80000008161095357fe5b04610ec4565b83610eff90919063ffffffff16565b905061097f81600654610eff90919063ffffffff16565b60068190555061098f33846115a8565b610999338261176c565b505050565b60008060008373ffffffffffffffffffffffffffffffffffffffff1673ffffffffffffffffffffffffffffffffffffffff168152602001908152602001600020549050919050565b606060048054600181600116156101000203166002900480601f016020809104026020016040519081016040528092919081815260200182805460018160011615610100020316600290048015610a7e5780601f10610a5357610100808354040283529160200191610a7e565b820191906000526020600020905b815481529060010190602001808311610a6157829003601f168201915b5050505050905090565b6000610b4b610a95610c36565b84610b4685604051806060016040528060258152602001611f796025913960016000610abf610c36565b73ffffffffffffffffffffffffffffffffffffffff1673ffffffffffffffffffffffffffffffffffffffff16815260200190815260200160002060008a73ffffffffffffffffffffffffffffffffffffffff1673ffffffffffffffffffffffffffffffffffffffff168152602001908152602001600020546114599092919063ffffffff16565b610c3e565b6001905092915050565b6000610b69610b62610c36565b8484611198565b6001905092915050565b6000806006541415610b885760009050610ba6565b610ba3610b9361077a565b610b9e600654610e35565b6118bd565b90505b90565b6000600160008473ffffffffffffffffffffffffffffffffffffffff1673ffffffffffffffffffffffffffffffffffffffff16815260200190815260200160002060008373ffffffffffffffffffffffffffffffffffffffff1673ffffffffffffffffffffffffffffffffffffffff16815260200190815260200160002054905092915050565b60065481565b600033905090565b600073ffffffffffffffffffffffffffffffffffffffff168373ffffffffffffffffffffffffffffffffffffffff161415610cc4576040517f08c379a0000000000000000000000000000000000000000000000000000000008152600401808060200182810382526024815260200180611f556024913960400191505060405180910390fd5b600073ffffffffffffffffffffffffffffffffffffffff168273ffffffffffffffffffffffffffffffffffffffff161415610d4a576040517f08c379a0000000000000000000000000000000000000000000000000000000008152600401808060200182810382526022815260200180611e446022913960400191505060405180910390fd5b80600160008573ffffffffffffffffffffffffffffffffffffffff1673ffffffffffffffffffffffffffffffffffffffff16815260200190815260200160002060008473ffffffffffffffffffffffffffffffffffffffff1673ffffffffffffffffffffffffffffffffffffffff168152602001908152602001600020819055508173ffffffffffffffffffffffffffffffffffffffff168373ffffffffffffffffffffffffffffffffffffffff167f8c5be1e5ebec7d5bd14f71427d1e84f3dd0314c0f7b2291e5b200ac8c7c3b925836040518082815260200191505060405180910390a3505050565b6000808211610eac576040517f08c379a000000000000000000000000000000000000000000000000000000000815260040180806020018281038252601e8152602001807f45746820416d6f756e74206d757374206265206d6f7265207468616e2030000081525060200191505060405180910390fd5b610ebd610eb76118f8565b83610ec4565b9050919050565b6000610ef76b033b2e3c9fd0803ce8000000610ee98486611a7790919063ffffffff16565b611afd90919063ffffffff16565b905092915050565b6000610f4183836040518060400160405280601e81526020017f536166654d6174683a207375627472616374696f6e206f766572666c6f770000815250611459565b905092915050565b600080828401905083811015610fc7576040517f08c379a000000000000000000000000000000000000000000000000000000000815260040180806020018281038252601b8152602001807f536166654d6174683a206164646974696f6e206f766572666c6f77000000000081525060200191505060405180910390fd5b8091505092915050565b600073ffffffffffffffffffffffffffffffffffffffff168273ffffffffffffffffffffffffffffffffffffffff161415611074576040517f08c379a000000000000000000000000000000000000000000000000000000000815260040180806020018281038252601f8152602001807f45524332303a206d696e7420746f20746865207a65726f20616464726573730081525060200191505060405180910390fd5b61108060008383611b47565b61109581600254610f4990919063ffffffff16565b6002819055506110ec816000808573ffffffffffffffffffffffffffffffffffffffff1673ffffffffffffffffffffffffffffffffffffffff16815260200190815260200160002054610f4990919063ffffffff16565b6000808473ffffffffffffffffffffffffffffffffffffffff1673ffffffffffffffffffffffffffffffffffffffff168152602001908152602001600020819055508173ffffffffffffffffffffffffffffffffffffffff16600073ffffffffffffffffffffffffffffffffffffffff167fddf252ad1be2c89b69c2b068fc378daa952ba7f163c4a11628f55a4df523b3ef836040518082815260200191505060405180910390a35050565b600073ffffffffffffffffffffffffffffffffffffffff168373ffffffffffffffffffffffffffffffffffffffff16141561121e576040517f08c379a0000000000000000000000000000000000000000000000000000000008152600401808060200182810382526025815260200180611f306025913960400191505060405180910390fd5b600073ffffffffffffffffffffffffffffffffffffffff168273ffffffffffffffffffffffffffffffffffffffff1614156112a4576040517f08c379a0000000000000000000000000000000000000000000000000000000008152600401808060200182810382526023815260200180611dff6023913960400191505060405180910390fd5b6112af838383611b47565b61131a81604051806060016040528060268152602001611e66602691396000808773ffffffffffffffffffffffffffffffffffffffff1673ffffffffffffffffffffffffffffffffffffffff168152602001908152602001600020546114599092919063ffffffff16565b6000808573ffffffffffffffffffffffffffffffffffffffff1673ffffffffffffffffffffffffffffffffffffffff168152602001908152602001600020819055506113ad816000808573ffffffffffffffffffffffffffffffffffffffff1673ffffffffffffffffffffffffffffffffffffffff16815260200190815260200160002054610f4990919063ffffffff16565b6000808473ffffffffffffffffffffffffffffffffffffffff1673ffffffffffffffffffffffffffffffffffffffff168152602001908152602001600020819055508173ffffffffffffffffffffffffffffffffffffffff168373ffffffffffffffffffffffffffffffffffffffff167fddf252ad1be2c89b69c2b068fc378daa952ba7f163c4a11628f55a4df523b3ef836040518082815260200191505060405180910390a3505050565b6000838311158290611506576040517f08c379a00000000000000000000000000000000000000000000000000000000081526004018080602001828103825283818151815260200191508051906020019080838360005b838110156114cb5780820151818401526020810190506114b0565b50505050905090810190601f1680156114f85780820380516001836020036101000a031916815260200191505b509250505060405180910390fd5b5060008385039050809150509392505050565b6000808211611590576040517f08c379a000000000000000000000000000000000000000000000000000000000815260040180806020018281038252601e8152602001807f55534d20416d6f756e74206d757374206265206d6f7265207468616e2030000081525060200191505060405180910390fd5b6115a18261159c6118f8565b6118bd565b9050919050565b600073ffffffffffffffffffffffffffffffffffffffff168273ffffffffffffffffffffffffffffffffffffffff16141561162e576040517f08c379a0000000000000000000000000000000000000000000000000000000008152600401808060200182810382526021815260200180611f0f6021913960400191505060405180910390fd5b61163a82600083611b47565b6116a581604051806060016040528060228152602001611e22602291396000808673ffffffffffffffffffffffffffffffffffffffff1673ffffffffffffffffffffffffffffffffffffffff168152602001908152602001600020546114599092919063ffffffff16565b6000808473ffffffffffffffffffffffffffffffffffffffff1673ffffffffffffffffffffffffffffffffffffffff168152602001908152602001600020819055506116fc81600254610eff90919063ffffffff16565b600281905550600073ffffffffffffffffffffffffffffffffffffffff168273ffffffffffffffffffffffffffffffffffffffff167fddf252ad1be2c89b69c2b068fc378daa952ba7f163c4a11628f55a4df523b3ef836040518082815260200191505060405180910390a35050565b803073ffffffffffffffffffffffffffffffffffffffff163110156117f9576040517f08c379a000000000000000000000000000000000000000000000000000000000815260040180806020018281038252601d8152602001807f416464726573733a20696e73756666696369656e742062616c616e636500000081525060200191505060405180910390fd5b60008273ffffffffffffffffffffffffffffffffffffffff168260405180600001905060006040518083038185875af1925050503d8060008114611859576040519150601f19603f3d011682016040523d82523d6000602084013e61185e565b606091505b50509050806118b8576040517f08c379a000000000000000000000000000000000000000000000000000000000815260040180806020018281038252603a815260200180611e8c603a913960400191505060405180910390fd5b505050565b60006118f0826118e26b033b2e3c9fd0803ce800000086611a7790919063ffffffff16565b611afd90919063ffffffff16565b905092915050565b6000611a72600560019054906101000a900473ffffffffffffffffffffffffffffffffffffffff1673ffffffffffffffffffffffffffffffffffffffff1663dae5f0fd6040518163ffffffff1660e01b815260040160206040518083038186803b15801561196557600080fd5b505afa158015611979573d6000803e3d6000fd5b505050506040513d602081101561198f57600080fd5b8101908080519060200190929190505050600a0a611a646b033b2e3c9fd0803ce8000000600560019054906101000a900473ffffffffffffffffffffffffffffffffffffffff1673ffffffffffffffffffffffffffffffffffffffff1663a3e6ba946040518163ffffffff1660e01b815260040160206040518083038186803b158015611a1b57600080fd5b505afa158015611a2f573d6000803e3d6000fd5b505050506040513d6020811015611a4557600080fd5b8101908080519060200190929190505050611a7790919063ffffffff16565b611afd90919063ffffffff16565b905090565b600080831415611a8a5760009050611af7565b6000828402905082848281611a9b57fe5b0414611af2576040517f08c379a0000000000000000000000000000000000000000000000000000000008152600401808060200182810382526021815260200180611ec66021913960400191505060405180910390fd5b809150505b92915050565b6000611b3f83836040518060400160405280601a81526020017f536166654d6174683a206469766973696f6e206279207a65726f000000000000815250611b4c565b905092915050565b505050565b60008083118290611bf8576040517f08c379a00000000000000000000000000000000000000000000000000000000081526004018080602001828103825283818151815260200191508051906020019080838360005b83811015611bbd578082015181840152602081019050611ba2565b50505050905090810190601f168015611bea5780820380516001836020036101000a031916815260200191505b509250505060405180910390fd5b506000838581611c0457fe5b049050809150509392505050565b611d0d816040516024018080602001828103825283818151815260200191508051906020019080838360005b83811015611c59578082015181840152602081019050611c3e565b50505050905090810190601f168015611c865780820380516001836020036101000a031916815260200191505b50925050506040516020818303038152906040527f41304fac000000000000000000000000000000000000000000000000000000007bffffffffffffffffffffffffffffffffffffffffffffffffffffffff19166020820180517bffffffffffffffffffffffffffffffffffffffffffffffffffffffff8381831617835250505050611dd5565b50565b611dd281604051602401808273ffffffffffffffffffffffffffffffffffffffff1673ffffffffffffffffffffffffffffffffffffffff1681526020019150506040516020818303038152906040527f2c2ecbc2000000000000000000000000000000000000000000000000000000007bffffffffffffffffffffffffffffffffffffffffffffffffffffffff19166020820180517bffffffffffffffffffffffffffffffffffffffffffffffffffffffff8381831617835250505050611dd5565b50565b60008151905060006a636f6e736f6c652e6c6f679050602083016000808483855afa505050505056fe45524332303a207472616e7366657220746f20746865207a65726f206164647265737345524332303a206275726e20616d6f756e7420657863656564732062616c616e636545524332303a20617070726f766520746f20746865207a65726f206164647265737345524332303a207472616e7366657220616d6f756e7420657863656564732062616c616e6365416464726573733a20756e61626c6520746f2073656e642076616c75652c20726563697069656e74206d61792068617665207265766572746564536166654d6174683a206d756c7469706c69636174696f6e206f766572666c6f7745524332303a207472616e7366657220616d6f756e74206578636565647320616c6c6f77616e636545524332303a206275726e2066726f6d20746865207a65726f206164647265737345524332303a207472616e736665722066726f6d20746865207a65726f206164647265737345524332303a20617070726f76652066726f6d20746865207a65726f206164647265737345524332303a2064656372656173656420616c6c6f77616e63652062656c6f77207a65726fa2646970667358221220d0aeca9373706c83f97cd76995b0590d48f9fdd8a7ab76ac58f26fce44aa694164736f6c63430006070033",
  "immutableReferences": {},
  "source": "pragma solidity ^0.6.7;\n\nimport \"@openzeppelin/contracts/token/ERC20/ERC20.sol\";\nimport \"@openzeppelin/contracts/math/SafeMath.sol\";\nimport \"./oracles/IOracle.sol\";\nimport \"@nomiclabs/buidler/console.sol\";\n\n/**\n * @title USM Stable Coin\n * @author Alex Roan (@alexroan)\n * @notice Concept by Jacob Eliosoff (@jacob-eliosoff)\n */\ncontract USM is ERC20 {\n    using SafeMath for uint;\n\n    uint constant UNIT = 1e27; // 10**27, MakerDAO's RAY\n    uint constant MINT_FEE = UNIT / 1000; // 0.1%\n    uint constant BURN_FEE = UNIT / 200; // 0.5%\n\n    address oracle;\n    uint public ethPool;\n\n    /**\n     * @param _oracle Address of the oracle\n     */\n    constructor(address _oracle) public ERC20(\"Minimal USD\", \"USM\") {\n        oracle = _oracle;\n        ethPool = 0;\n        console.log(\"Hi!\");\n        console.log(_oracle);\n    }\n\n    /**\n     * @notice Multiplies x and y, assuming they are both fixed point with 27 digits.\n     */\n    function mulFixed(uint256 x, uint256 y) internal pure returns (uint256) {\n        return x.mul(y).div(UNIT);\n    }\n\n    /**\n     * @notice Divides x by y, assuming they are both fixed point with 27 digits.\n     */\n    function divFixed(uint256 x, uint256 y) internal pure returns (uint256) {\n        return x.mul(UNIT).div(y);\n    }\n\n    /**\n     * @notice Mint ETH for USM. Uses msg.value as the ETH deposit.\n     */\n    function mint() external payable {\n        uint usmAmount = _ethToUsm(msg.value);\n        uint usmMinusFee = usmAmount.sub(mulFixed(usmAmount, MINT_FEE));\n        ethPool = ethPool.add(msg.value);\n        _mint(msg.sender, usmMinusFee);\n    }\n\n    /**\n     * @notice Burn USM for ETH.\n     *\n     * @param _usmAmount Amount of USM to burn.\n     */\n    function burn(uint _usmAmount) external {\n        uint ethAmount = _usmToEth(_usmAmount);\n        uint ethMinusFee = ethAmount.sub(mulFixed(ethAmount, BURN_FEE));\n        ethPool = ethPool.sub(ethMinusFee);\n        _burn(msg.sender, _usmAmount);\n        Address.sendValue(msg.sender, ethMinusFee);\n    }\n\n    /**\n     * @notice Calculate debt ratio of the current Eth pool amount and outstanding USM\n     * (the amount of USM in total supply).\n     *\n     * @return Debt ratio in UNIT.\n     */\n    function debtRatio() external view returns (uint) {\n        if (ethPool == 0) {\n            return 0;\n        }\n        // If divFixed is fed two integers, returns their division as a fixed point number\n        return divFixed(totalSupply(), _ethToUsm(ethPool));\n    }\n\n    /**\n     * @notice Convert ETH amount to USM using the latest price of USM\n     * in ETH.\n     *\n     * @param _ethAmount The amount of ETH to convert.\n     * @return The amount of USM.\n     */\n    function _ethToUsm(uint _ethAmount) internal view returns (uint) {\n        require(_ethAmount > 0, \"Eth Amount must be more than 0\");\n        return mulFixed(_oraclePrice(), _ethAmount);\n    }\n\n    /**\n     * @notice Convert USM amount to ETH using the latest price of USM\n     * in ETH.\n     *\n     * @param _usmAmount The amount of USM to convert.\n     * @return The amount of ETH.\n     */\n    function _usmToEth(uint _usmAmount) internal view returns (uint) {\n        require(_usmAmount > 0, \"USM Amount must be more than 0\");\n        return divFixed(_usmAmount, _oraclePrice());\n    }\n\n    /**\n     * @notice Retrieve the latest price of the price oracle.\n     *\n     * @return price in UNIT\n     */\n    function _oraclePrice() internal view returns (uint) {\n        // Needs a convertDecimal(IOracle(oracle).decimalShift(), UNIT) function.\n        return IOracle(oracle).latestPrice().mul(UNIT).div(10 ** IOracle(oracle).decimalShift());\n    }\n}",
  "sourcePath": "/Users/alexroan/Documents/Projects/Blockchain/DApps/usm/contracts/USM.sol",
  "compiler": {
    "name": "solc",
    "version": "0.6.7+commit.b8d736ae.Linux.g++"
  },
  "schemaVersion": "3.2.3",
  "updatedAt": "2020-08-23T17:31:41.570Z",
  "networkType": "ethereum",
  "devdoc": {
    "author": "Alex Roan (@alexroan)",
    "methods": {
      "allowance(address,address)": {
        "details": "See {IERC20-allowance}."
      },
      "approve(address,uint256)": {
        "details": "See {IERC20-approve}.     * Requirements:     * - `spender` cannot be the zero address."
      },
      "balanceOf(address)": {
        "details": "See {IERC20-balanceOf}."
      },
      "burn(uint256)": {
        "params": {
          "_usmAmount": "Amount of USM to burn."
        }
      },
      "constructor": {
        "params": {
          "_oracle": "Address of the oracle"
        }
      },
      "decimals()": {
        "details": "Returns the number of decimals used to get its user representation. For example, if `decimals` equals `2`, a balance of `505` tokens should be displayed to a user as `5,05` (`505 / 10 ** 2`).     * Tokens usually opt for a value of 18, imitating the relationship between Ether and Wei. This is the value {ERC20} uses, unless {_setupDecimals} is called.     * NOTE: This information is only used for _display_ purposes: it in no way affects any of the arithmetic of the contract, including {IERC20-balanceOf} and {IERC20-transfer}."
      },
      "decreaseAllowance(address,uint256)": {
        "details": "Atomically decreases the allowance granted to `spender` by the caller.     * This is an alternative to {approve} that can be used as a mitigation for problems described in {IERC20-approve}.     * Emits an {Approval} event indicating the updated allowance.     * Requirements:     * - `spender` cannot be the zero address. - `spender` must have allowance for the caller of at least `subtractedValue`."
      },
      "increaseAllowance(address,uint256)": {
        "details": "Atomically increases the allowance granted to `spender` by the caller.     * This is an alternative to {approve} that can be used as a mitigation for problems described in {IERC20-approve}.     * Emits an {Approval} event indicating the updated allowance.     * Requirements:     * - `spender` cannot be the zero address."
      },
      "name()": {
        "details": "Returns the name of the token."
      },
      "symbol()": {
        "details": "Returns the symbol of the token, usually a shorter version of the name."
      },
      "totalSupply()": {
        "details": "See {IERC20-totalSupply}."
      },
      "transfer(address,uint256)": {
        "details": "See {IERC20-transfer}.     * Requirements:     * - `recipient` cannot be the zero address. - the caller must have a balance of at least `amount`."
      },
      "transferFrom(address,address,uint256)": {
        "details": "See {IERC20-transferFrom}.     * Emits an {Approval} event indicating the updated allowance. This is not required by the EIP. See the note at the beginning of {ERC20};     * Requirements: - `sender` and `recipient` cannot be the zero address. - `sender` must have a balance of at least `amount`. - the caller must have allowance for ``sender``'s tokens of at least `amount`."
      }
    },
    "title": "USM Stable Coin"
  },
  "userdoc": {
    "methods": {
      "burn(uint256)": {
        "notice": "Burn USM for ETH."
      },
      "debtRatio()": {
        "notice": "Calculate debt ratio of the current Eth pool amount and outstanding USM (the amount of USM in total supply)."
      },
      "mint()": {
        "notice": "Mint ETH for USM. Uses msg.value as the ETH deposit."
      }
    },
    "notice": "Concept by Jacob Eliosoff (@jacob-eliosoff)"
  }
}