{
  "contractName": "USM",
  "abi": [
    {
      "inputs": [
        {
          "internalType": "address",
          "name": "_oracle",
          "type": "address"
        }
      ],
      "stateMutability": "nonpayable",
      "type": "constructor"
    },
    {
      "anonymous": false,
      "inputs": [
        {
          "indexed": true,
          "internalType": "address",
          "name": "owner",
          "type": "address"
        },
        {
          "indexed": true,
          "internalType": "address",
          "name": "spender",
          "type": "address"
        },
        {
          "indexed": false,
          "internalType": "uint256",
          "name": "value",
          "type": "uint256"
        }
      ],
      "name": "Approval",
      "type": "event"
    },
    {
      "anonymous": false,
      "inputs": [
        {
          "indexed": true,
          "internalType": "address",
          "name": "previousOwner",
          "type": "address"
        },
        {
          "indexed": true,
          "internalType": "address",
          "name": "newOwner",
          "type": "address"
        }
      ],
      "name": "OwnershipTransferred",
      "type": "event"
    },
    {
      "anonymous": false,
      "inputs": [
        {
          "indexed": true,
          "internalType": "address",
          "name": "from",
          "type": "address"
        },
        {
          "indexed": true,
          "internalType": "address",
          "name": "to",
          "type": "address"
        },
        {
          "indexed": false,
          "internalType": "uint256",
          "name": "value",
          "type": "uint256"
        }
      ],
      "name": "Transfer",
      "type": "event"
    },
    {
      "inputs": [
        {
          "internalType": "address",
          "name": "owner",
          "type": "address"
        },
        {
          "internalType": "address",
          "name": "spender",
          "type": "address"
        }
      ],
      "name": "allowance",
      "outputs": [
        {
          "internalType": "uint256",
          "name": "",
          "type": "uint256"
        }
      ],
      "stateMutability": "view",
      "type": "function"
    },
    {
      "inputs": [
        {
          "internalType": "address",
          "name": "spender",
          "type": "address"
        },
        {
          "internalType": "uint256",
          "name": "amount",
          "type": "uint256"
        }
      ],
      "name": "approve",
      "outputs": [
        {
          "internalType": "bool",
          "name": "",
          "type": "bool"
        }
      ],
      "stateMutability": "nonpayable",
      "type": "function"
    },
    {
      "inputs": [
        {
          "internalType": "address",
          "name": "account",
          "type": "address"
        }
      ],
      "name": "balanceOf",
      "outputs": [
        {
          "internalType": "uint256",
          "name": "",
          "type": "uint256"
        }
      ],
      "stateMutability": "view",
      "type": "function"
    },
    {
      "inputs": [],
      "name": "decimals",
      "outputs": [
        {
          "internalType": "uint8",
          "name": "",
          "type": "uint8"
        }
      ],
      "stateMutability": "view",
      "type": "function"
    },
    {
      "inputs": [
        {
          "internalType": "address",
          "name": "spender",
          "type": "address"
        },
        {
          "internalType": "uint256",
          "name": "subtractedValue",
          "type": "uint256"
        }
      ],
      "name": "decreaseAllowance",
      "outputs": [
        {
          "internalType": "bool",
          "name": "",
          "type": "bool"
        }
      ],
      "stateMutability": "nonpayable",
      "type": "function"
    },
    {
      "inputs": [],
      "name": "ethPool",
      "outputs": [
        {
          "internalType": "uint256",
          "name": "",
          "type": "uint256"
        }
      ],
      "stateMutability": "view",
      "type": "function"
    },
    {
      "inputs": [
        {
          "internalType": "address",
          "name": "spender",
          "type": "address"
        },
        {
          "internalType": "uint256",
          "name": "addedValue",
          "type": "uint256"
        }
      ],
      "name": "increaseAllowance",
      "outputs": [
        {
          "internalType": "bool",
          "name": "",
          "type": "bool"
        }
      ],
      "stateMutability": "nonpayable",
      "type": "function"
    },
    {
      "inputs": [],
      "name": "name",
      "outputs": [
        {
          "internalType": "string",
          "name": "",
          "type": "string"
        }
      ],
      "stateMutability": "view",
      "type": "function"
    },
    {
      "inputs": [],
      "name": "owner",
      "outputs": [
        {
          "internalType": "address",
          "name": "",
          "type": "address"
        }
      ],
      "stateMutability": "view",
      "type": "function"
    },
    {
      "inputs": [],
      "name": "renounceOwnership",
      "outputs": [],
      "stateMutability": "nonpayable",
      "type": "function"
    },
    {
      "inputs": [],
      "name": "symbol",
      "outputs": [
        {
          "internalType": "string",
          "name": "",
          "type": "string"
        }
      ],
      "stateMutability": "view",
      "type": "function"
    },
    {
      "inputs": [],
      "name": "totalSupply",
      "outputs": [
        {
          "internalType": "uint256",
          "name": "",
          "type": "uint256"
        }
      ],
      "stateMutability": "view",
      "type": "function"
    },
    {
      "inputs": [
        {
          "internalType": "address",
          "name": "recipient",
          "type": "address"
        },
        {
          "internalType": "uint256",
          "name": "amount",
          "type": "uint256"
        }
      ],
      "name": "transfer",
      "outputs": [
        {
          "internalType": "bool",
          "name": "",
          "type": "bool"
        }
      ],
      "stateMutability": "nonpayable",
      "type": "function"
    },
    {
      "inputs": [
        {
          "internalType": "address",
          "name": "sender",
          "type": "address"
        },
        {
          "internalType": "address",
          "name": "recipient",
          "type": "address"
        },
        {
          "internalType": "uint256",
          "name": "amount",
          "type": "uint256"
        }
      ],
      "name": "transferFrom",
      "outputs": [
        {
          "internalType": "bool",
          "name": "",
          "type": "bool"
        }
      ],
      "stateMutability": "nonpayable",
      "type": "function"
    },
    {
      "inputs": [
        {
          "internalType": "address",
          "name": "newOwner",
          "type": "address"
        }
      ],
      "name": "transferOwnership",
      "outputs": [],
      "stateMutability": "nonpayable",
      "type": "function"
    },
    {
      "inputs": [],
      "name": "mint",
      "outputs": [],
      "stateMutability": "payable",
      "type": "function"
    },
    {
      "inputs": [
        {
          "internalType": "uint256",
          "name": "_usmAmount",
          "type": "uint256"
        }
      ],
      "name": "burn",
      "outputs": [],
      "stateMutability": "nonpayable",
      "type": "function"
    },
    {
      "inputs": [
        {
          "internalType": "address",
          "name": "_oracle",
          "type": "address"
        }
      ],
      "name": "setOracle",
      "outputs": [],
      "stateMutability": "nonpayable",
      "type": "function"
    }
  ],
  "bytecode": "0x60806040523480156200001157600080fd5b50604051620025b9380380620025b9833981810160405260208110156200003757600080fd5b81019080805190602001909291905050506040518060400160405280600b81526020017f4d696e696d616c205553440000000000000000000000000000000000000000008152506040518060400160405280600381526020017f55534d00000000000000000000000000000000000000000000000000000000008152508160039080519060200190620000cc9291906200020d565b508060049080519060200190620000e59291906200020d565b506012600560006101000a81548160ff021916908360ff16021790555050506000620001166200020560201b60201c565b905080600560016101000a81548173ffffffffffffffffffffffffffffffffffffffff021916908373ffffffffffffffffffffffffffffffffffffffff1602179055508073ffffffffffffffffffffffffffffffffffffffff16600073ffffffffffffffffffffffffffffffffffffffff167f8be0079c531659141344cd1fd0a4f28419497f9722a3daafe3b4186f6b6457e060405160405180910390a35080600660006101000a81548173ffffffffffffffffffffffffffffffffffffffff021916908373ffffffffffffffffffffffffffffffffffffffff160217905550600060078190555050620002bc565b600033905090565b828054600181600116156101000203166002900490600052602060002090601f016020900481019282601f106200025057805160ff191683800117855562000281565b8280016001018555821562000281579182015b828111156200028057825182559160200191906001019062000263565b5b50905062000290919062000294565b5090565b620002b991905b80821115620002b55760008160009055506001016200029b565b5090565b90565b6122ed80620002cc6000396000f3fe6080604052600436106101095760003560e01c8063715018a611610095578063a457c2d711610064578063a457c2d71461056c578063a9059cbb146105df578063dd62ed3e14610652578063f16673a4146106d7578063f2fde38b1461070257610109565b8063715018a61461041d5780637adbf973146104345780638da5cb5b1461048557806395d89b41146104dc57610109565b806323b872dd116100dc57806323b872dd14610246578063313ce567146102d9578063395093511461030a57806342966c681461037d57806370a08231146103b857610109565b806306fdde031461010e578063095ea7b31461019e5780631249c58b1461021157806318160ddd1461021b575b600080fd5b34801561011a57600080fd5b50610123610753565b6040518080602001828103825283818151815260200191508051906020019080838360005b83811015610163578082015181840152602081019050610148565b50505050905090810190601f1680156101905780820380516001836020036101000a031916815260200191505b509250505060405180910390f35b3480156101aa57600080fd5b506101f7600480360360408110156101c157600080fd5b81019080803573ffffffffffffffffffffffffffffffffffffffff169060200190929190803590602001909291905050506107f5565b604051808215151515815260200191505060405180910390f35b610219610813565b005b34801561022757600080fd5b50610230610848565b6040518082815260200191505060405180910390f35b34801561025257600080fd5b506102bf6004803603606081101561026957600080fd5b81019080803573ffffffffffffffffffffffffffffffffffffffff169060200190929190803573ffffffffffffffffffffffffffffffffffffffff16906020019092919080359060200190929190505050610852565b604051808215151515815260200191505060405180910390f35b3480156102e557600080fd5b506102ee61092b565b604051808260ff1660ff16815260200191505060405180910390f35b34801561031657600080fd5b506103636004803603604081101561032d57600080fd5b81019080803573ffffffffffffffffffffffffffffffffffffffff16906020019092919080359060200190929190505050610942565b604051808215151515815260200191505060405180910390f35b34801561038957600080fd5b506103b6600480360360208110156103a057600080fd5b81019080803590602001909291905050506109f5565b005b3480156103c457600080fd5b50610407600480360360208110156103db57600080fd5b81019080803573ffffffffffffffffffffffffffffffffffffffff169060200190929190505050610a35565b6040518082815260200191505060405180910390f35b34801561042957600080fd5b50610432610a7d565b005b34801561044057600080fd5b506104836004803603602081101561045757600080fd5b81019080803573ffffffffffffffffffffffffffffffffffffffff169060200190929190505050610c08565b005b34801561049157600080fd5b5061049a610d16565b604051808273ffffffffffffffffffffffffffffffffffffffff1673ffffffffffffffffffffffffffffffffffffffff16815260200191505060405180910390f35b3480156104e857600080fd5b506104f1610d40565b6040518080602001828103825283818151815260200191508051906020019080838360005b83811015610531578082015181840152602081019050610516565b50505050905090810190601f16801561055e5780820380516001836020036101000a031916815260200191505b509250505060405180910390f35b34801561057857600080fd5b506105c56004803603604081101561058f57600080fd5b81019080803573ffffffffffffffffffffffffffffffffffffffff16906020019092919080359060200190929190505050610de2565b604051808215151515815260200191505060405180910390f35b3480156105eb57600080fd5b506106386004803603604081101561060257600080fd5b81019080803573ffffffffffffffffffffffffffffffffffffffff16906020019092919080359060200190929190505050610eaf565b604051808215151515815260200191505060405180910390f35b34801561065e57600080fd5b506106c16004803603604081101561067557600080fd5b81019080803573ffffffffffffffffffffffffffffffffffffffff169060200190929190803573ffffffffffffffffffffffffffffffffffffffff169060200190929190505050610ecd565b6040518082815260200191505060405180910390f35b3480156106e357600080fd5b506106ec610f54565b6040518082815260200191505060405180910390f35b34801561070e57600080fd5b506107516004803603602081101561072557600080fd5b81019080803573ffffffffffffffffffffffffffffffffffffffff169060200190929190505050610f5a565b005b606060038054600181600116156101000203166002900480601f0160208091040260200160405190810160405280929190818152602001828054600181600116156101000203166002900480156107eb5780601f106107c0576101008083540402835291602001916107eb565b820191906000526020600020905b8154815290600101906020018083116107ce57829003601f168201915b5050505050905090565b600061080961080261116a565b8484611172565b6001905092915050565b600061081e34611369565b90506108353460075461142090919063ffffffff16565b60078190555061084533826114a8565b50565b6000600254905090565b600061085f84848461166f565b6109208461086b61116a565b61091b8560405180606001604052806028815260200161220160289139600160008b73ffffffffffffffffffffffffffffffffffffffff1673ffffffffffffffffffffffffffffffffffffffff16815260200190815260200160002060006108d161116a565b73ffffffffffffffffffffffffffffffffffffffff1673ffffffffffffffffffffffffffffffffffffffff168152602001908152602001600020546119309092919063ffffffff16565b611172565b600190509392505050565b6000600560009054906101000a900460ff16905090565b60006109eb61094f61116a565b846109e6856001600061096061116a565b73ffffffffffffffffffffffffffffffffffffffff1673ffffffffffffffffffffffffffffffffffffffff16815260200190815260200160002060008973ffffffffffffffffffffffffffffffffffffffff1673ffffffffffffffffffffffffffffffffffffffff1681526020019081526020016000205461142090919063ffffffff16565b611172565b6001905092915050565b6000610a00826119f0565b9050610a1781600754611aa790919063ffffffff16565b600781905550610a273383611af1565b610a313382611cb5565b5050565b60008060008373ffffffffffffffffffffffffffffffffffffffff1673ffffffffffffffffffffffffffffffffffffffff168152602001908152602001600020549050919050565b610a8561116a565b73ffffffffffffffffffffffffffffffffffffffff16600560019054906101000a900473ffffffffffffffffffffffffffffffffffffffff1673ffffffffffffffffffffffffffffffffffffffff1614610b47576040517f08c379a00000000000000000000000000000000000000000000000000000000081526004018080602001828103825260208152602001807f4f776e61626c653a2063616c6c6572206973206e6f7420746865206f776e657281525060200191505060405180910390fd5b600073ffffffffffffffffffffffffffffffffffffffff16600560019054906101000a900473ffffffffffffffffffffffffffffffffffffffff1673ffffffffffffffffffffffffffffffffffffffff167f8be0079c531659141344cd1fd0a4f28419497f9722a3daafe3b4186f6b6457e060405160405180910390a36000600560016101000a81548173ffffffffffffffffffffffffffffffffffffffff021916908373ffffffffffffffffffffffffffffffffffffffff160217905550565b610c1061116a565b73ffffffffffffffffffffffffffffffffffffffff16600560019054906101000a900473ffffffffffffffffffffffffffffffffffffffff1673ffffffffffffffffffffffffffffffffffffffff1614610cd2576040517f08c379a00000000000000000000000000000000000000000000000000000000081526004018080602001828103825260208152602001807f4f776e61626c653a2063616c6c6572206973206e6f7420746865206f776e657281525060200191505060405180910390fd5b80600660006101000a81548173ffffffffffffffffffffffffffffffffffffffff021916908373ffffffffffffffffffffffffffffffffffffffff16021790555050565b6000600560019054906101000a900473ffffffffffffffffffffffffffffffffffffffff16905090565b606060048054600181600116156101000203166002900480601f016020809104026020016040519081016040528092919081815260200182805460018160011615610100020316600290048015610dd85780601f10610dad57610100808354040283529160200191610dd8565b820191906000526020600020905b815481529060010190602001808311610dbb57829003601f168201915b5050505050905090565b6000610ea5610def61116a565b84610ea0856040518060600160405280602581526020016122936025913960016000610e1961116a565b73ffffffffffffffffffffffffffffffffffffffff1673ffffffffffffffffffffffffffffffffffffffff16815260200190815260200160002060008a73ffffffffffffffffffffffffffffffffffffffff1673ffffffffffffffffffffffffffffffffffffffff168152602001908152602001600020546119309092919063ffffffff16565b611172565b6001905092915050565b6000610ec3610ebc61116a565b848461166f565b6001905092915050565b6000600160008473ffffffffffffffffffffffffffffffffffffffff1673ffffffffffffffffffffffffffffffffffffffff16815260200190815260200160002060008373ffffffffffffffffffffffffffffffffffffffff1673ffffffffffffffffffffffffffffffffffffffff16815260200190815260200160002054905092915050565b60075481565b610f6261116a565b73ffffffffffffffffffffffffffffffffffffffff16600560019054906101000a900473ffffffffffffffffffffffffffffffffffffffff1673ffffffffffffffffffffffffffffffffffffffff1614611024576040517f08c379a00000000000000000000000000000000000000000000000000000000081526004018080602001828103825260208152602001807f4f776e61626c653a2063616c6c6572206973206e6f7420746865206f776e657281525060200191505060405180910390fd5b600073ffffffffffffffffffffffffffffffffffffffff168173ffffffffffffffffffffffffffffffffffffffff1614156110aa576040517f08c379a00000000000000000000000000000000000000000000000000000000081526004018080602001828103825260268152602001806121386026913960400191505060405180910390fd5b8073ffffffffffffffffffffffffffffffffffffffff16600560019054906101000a900473ffffffffffffffffffffffffffffffffffffffff1673ffffffffffffffffffffffffffffffffffffffff167f8be0079c531659141344cd1fd0a4f28419497f9722a3daafe3b4186f6b6457e060405160405180910390a380600560016101000a81548173ffffffffffffffffffffffffffffffffffffffff021916908373ffffffffffffffffffffffffffffffffffffffff16021790555050565b600033905090565b600073ffffffffffffffffffffffffffffffffffffffff168373ffffffffffffffffffffffffffffffffffffffff1614156111f8576040517f08c379a000000000000000000000000000000000000000000000000000000000815260040180806020018281038252602481526020018061226f6024913960400191505060405180910390fd5b600073ffffffffffffffffffffffffffffffffffffffff168273ffffffffffffffffffffffffffffffffffffffff16141561127e576040517f08c379a000000000000000000000000000000000000000000000000000000000815260040180806020018281038252602281526020018061215e6022913960400191505060405180910390fd5b80600160008573ffffffffffffffffffffffffffffffffffffffff1673ffffffffffffffffffffffffffffffffffffffff16815260200190815260200160002060008473ffffffffffffffffffffffffffffffffffffffff1673ffffffffffffffffffffffffffffffffffffffff168152602001908152602001600020819055508173ffffffffffffffffffffffffffffffffffffffff168373ffffffffffffffffffffffffffffffffffffffff167f8c5be1e5ebec7d5bd14f71427d1e84f3dd0314c0f7b2291e5b200ac8c7c3b925836040518082815260200191505060405180910390a3505050565b60008082116113e0576040517f08c379a000000000000000000000000000000000000000000000000000000000815260040180806020018281038252601e8152602001807f45746820416d6f756e74206d757374206265206d6f7265207468616e2030000081525060200191505060405180910390fd5b6000806113eb611e06565b9150915061141781600a0a6114098685611f5790919063ffffffff16565b611fdd90919063ffffffff16565b92505050919050565b60008082840190508381101561149e576040517f08c379a000000000000000000000000000000000000000000000000000000000815260040180806020018281038252601b8152602001807f536166654d6174683a206164646974696f6e206f766572666c6f77000000000081525060200191505060405180910390fd5b8091505092915050565b600073ffffffffffffffffffffffffffffffffffffffff168273ffffffffffffffffffffffffffffffffffffffff16141561154b576040517f08c379a000000000000000000000000000000000000000000000000000000000815260040180806020018281038252601f8152602001807f45524332303a206d696e7420746f20746865207a65726f20616464726573730081525060200191505060405180910390fd5b61155760008383612027565b61156c8160025461142090919063ffffffff16565b6002819055506115c3816000808573ffffffffffffffffffffffffffffffffffffffff1673ffffffffffffffffffffffffffffffffffffffff1681526020019081526020016000205461142090919063ffffffff16565b6000808473ffffffffffffffffffffffffffffffffffffffff1673ffffffffffffffffffffffffffffffffffffffff168152602001908152602001600020819055508173ffffffffffffffffffffffffffffffffffffffff16600073ffffffffffffffffffffffffffffffffffffffff167fddf252ad1be2c89b69c2b068fc378daa952ba7f163c4a11628f55a4df523b3ef836040518082815260200191505060405180910390a35050565b600073ffffffffffffffffffffffffffffffffffffffff168373ffffffffffffffffffffffffffffffffffffffff1614156116f5576040517f08c379a000000000000000000000000000000000000000000000000000000000815260040180806020018281038252602581526020018061224a6025913960400191505060405180910390fd5b600073ffffffffffffffffffffffffffffffffffffffff168273ffffffffffffffffffffffffffffffffffffffff16141561177b576040517f08c379a00000000000000000000000000000000000000000000000000000000081526004018080602001828103825260238152602001806120f36023913960400191505060405180910390fd5b611786838383612027565b6117f181604051806060016040528060268152602001612180602691396000808773ffffffffffffffffffffffffffffffffffffffff1673ffffffffffffffffffffffffffffffffffffffff168152602001908152602001600020546119309092919063ffffffff16565b6000808573ffffffffffffffffffffffffffffffffffffffff1673ffffffffffffffffffffffffffffffffffffffff16815260200190815260200160002081905550611884816000808573ffffffffffffffffffffffffffffffffffffffff1673ffffffffffffffffffffffffffffffffffffffff1681526020019081526020016000205461142090919063ffffffff16565b6000808473ffffffffffffffffffffffffffffffffffffffff1673ffffffffffffffffffffffffffffffffffffffff168152602001908152602001600020819055508173ffffffffffffffffffffffffffffffffffffffff168373ffffffffffffffffffffffffffffffffffffffff167fddf252ad1be2c89b69c2b068fc378daa952ba7f163c4a11628f55a4df523b3ef836040518082815260200191505060405180910390a3505050565b60008383111582906119dd576040517f08c379a00000000000000000000000000000000000000000000000000000000081526004018080602001828103825283818151815260200191508051906020019080838360005b838110156119a2578082015181840152602081019050611987565b50505050905090810190601f1680156119cf5780820380516001836020036101000a031916815260200191505b509250505060405180910390fd5b5060008385039050809150509392505050565b6000808211611a67576040517f08c379a000000000000000000000000000000000000000000000000000000000815260040180806020018281038252601e8152602001807f55534d20416d6f756e74206d757374206265206d6f7265207468616e2030000081525060200191505060405180910390fd5b600080611a72611e06565b91509150611a9e82611a9083600a0a87611f5790919063ffffffff16565b611fdd90919063ffffffff16565b92505050919050565b6000611ae983836040518060400160405280601e81526020017f536166654d6174683a207375627472616374696f6e206f766572666c6f770000815250611930565b905092915050565b600073ffffffffffffffffffffffffffffffffffffffff168273ffffffffffffffffffffffffffffffffffffffff161415611b77576040517f08c379a00000000000000000000000000000000000000000000000000000000081526004018080602001828103825260218152602001806122296021913960400191505060405180910390fd5b611b8382600083612027565b611bee81604051806060016040528060228152602001612116602291396000808673ffffffffffffffffffffffffffffffffffffffff1673ffffffffffffffffffffffffffffffffffffffff168152602001908152602001600020546119309092919063ffffffff16565b6000808473ffffffffffffffffffffffffffffffffffffffff1673ffffffffffffffffffffffffffffffffffffffff16815260200190815260200160002081905550611c4581600254611aa790919063ffffffff16565b600281905550600073ffffffffffffffffffffffffffffffffffffffff168273ffffffffffffffffffffffffffffffffffffffff167fddf252ad1be2c89b69c2b068fc378daa952ba7f163c4a11628f55a4df523b3ef836040518082815260200191505060405180910390a35050565b803073ffffffffffffffffffffffffffffffffffffffff16311015611d42576040517f08c379a000000000000000000000000000000000000000000000000000000000815260040180806020018281038252601d8152602001807f416464726573733a20696e73756666696369656e742062616c616e636500000081525060200191505060405180910390fd5b60008273ffffffffffffffffffffffffffffffffffffffff168260405180600001905060006040518083038185875af1925050503d8060008114611da2576040519150601f19603f3d011682016040523d82523d6000602084013e611da7565b606091505b5050905080611e01576040517f08c379a000000000000000000000000000000000000000000000000000000000815260040180806020018281038252603a8152602001806121a6603a913960400191505060405180910390fd5b505050565b600080600660009054906101000a900473ffffffffffffffffffffffffffffffffffffffff1673ffffffffffffffffffffffffffffffffffffffff1663a3e6ba946040518163ffffffff1660e01b815260040160206040518083038186803b158015611e7157600080fd5b505afa158015611e85573d6000803e3d6000fd5b505050506040513d6020811015611e9b57600080fd5b8101908080519060200190929190505050600660009054906101000a900473ffffffffffffffffffffffffffffffffffffffff1673ffffffffffffffffffffffffffffffffffffffff1663dae5f0fd6040518163ffffffff1660e01b815260040160206040518083038186803b158015611f1457600080fd5b505afa158015611f28573d6000803e3d6000fd5b505050506040513d6020811015611f3e57600080fd5b8101908080519060200190929190505050915091509091565b600080831415611f6a5760009050611fd7565b6000828402905082848281611f7b57fe5b0414611fd2576040517f08c379a00000000000000000000000000000000000000000000000000000000081526004018080602001828103825260218152602001806121e06021913960400191505060405180910390fd5b809150505b92915050565b600061201f83836040518060400160405280601a81526020017f536166654d6174683a206469766973696f6e206279207a65726f00000000000081525061202c565b905092915050565b505050565b600080831182906120d8576040517f08c379a00000000000000000000000000000000000000000000000000000000081526004018080602001828103825283818151815260200191508051906020019080838360005b8381101561209d578082015181840152602081019050612082565b50505050905090810190601f1680156120ca5780820380516001836020036101000a031916815260200191505b509250505060405180910390fd5b5060008385816120e457fe5b04905080915050939250505056fe45524332303a207472616e7366657220746f20746865207a65726f206164647265737345524332303a206275726e20616d6f756e7420657863656564732062616c616e63654f776e61626c653a206e6577206f776e657220697320746865207a65726f206164647265737345524332303a20617070726f766520746f20746865207a65726f206164647265737345524332303a207472616e7366657220616d6f756e7420657863656564732062616c616e6365416464726573733a20756e61626c6520746f2073656e642076616c75652c20726563697069656e74206d61792068617665207265766572746564536166654d6174683a206d756c7469706c69636174696f6e206f766572666c6f7745524332303a207472616e7366657220616d6f756e74206578636565647320616c6c6f77616e636545524332303a206275726e2066726f6d20746865207a65726f206164647265737345524332303a207472616e736665722066726f6d20746865207a65726f206164647265737345524332303a20617070726f76652066726f6d20746865207a65726f206164647265737345524332303a2064656372656173656420616c6c6f77616e63652062656c6f77207a65726fa26469706673582212200b1014096aa9155e94fec8cf19098b44c1cf28a8e2764211cfea31923d60bea364736f6c63430006070033",
  "immutableReferences": {},
  "source": "pragma solidity ^0.6.7;\n\nimport \"@openzeppelin/contracts/token/ERC20/ERC20.sol\";\nimport \"@openzeppelin/contracts/math/SafeMath.sol\";\nimport \"@openzeppelin/contracts/access/Ownable.sol\";\nimport \"./IOracle.sol\";\n\ncontract USM is ERC20, Ownable {\n    using SafeMath for uint;\n\n    address oracle;\n    uint public ethPool;\n\n    /**\n     * @param _oracle Address of the oracle\n     */\n    constructor(address _oracle) public ERC20(\"Minimal USD\", \"USM\") {\n        oracle = _oracle;\n        ethPool = 0;\n    }\n\n    /**\n     * @dev Mint ETH for USM. Uses msg.value as the ETH deposit.\n     */\n    function mint() external payable {\n        uint usmAmount = _ethToUsm(msg.value);\n        ethPool = ethPool.add(msg.value);\n        _mint(msg.sender, usmAmount);\n    }\n\n    /**\n     * @dev Burn USM for ETH.\n     *\n     * @param _usmAmount Amount of USM to burn.\n     */\n    function burn(uint _usmAmount) external {\n        uint ethAmount = _usmToEth(_usmAmount);\n        ethPool = ethPool.sub(ethAmount);\n        _burn(msg.sender, _usmAmount);\n        Address.sendValue(msg.sender, ethAmount);\n    }\n\n    /**\n     * @dev Set the price oracle. Only Owner.\n     *\n     * @param _oracle Address of the oracle.\n     */\n    function setOracle(address _oracle) external onlyOwner {\n        oracle = _oracle;\n    }\n\n    /**\n     * @dev Convert ETH amount to USM using the latest price of USM\n     * in ETH.\n     *\n     * @param _ethAmount The amount of ETH to convert.\n     * @return The amount of USM.\n     */\n    function _ethToUsm(uint _ethAmount) internal view returns (uint) {\n        require(_ethAmount > 0, \"Eth Amount must be more than 0\");\n        (uint usdPrice, uint decimalShift) = _oracleData();\n        return usdPrice.mul(_ethAmount).div(10**decimalShift);\n    }\n\n    /**\n     * @dev Convert USM amount to ETH using the latest price of USM\n     * in ETH.\n     *\n     * @param _usmAmount The amount of USM to convert.\n     * @return The amount of ETH.\n     */\n    function _usmToEth(uint _usmAmount) internal view returns (uint) {\n        require(_usmAmount > 0, \"USM Amount must be more than 0\");\n        (uint usdPrice, uint decimalShift) = _oracleData();\n        return (_usmAmount.mul(10**decimalShift)).div(usdPrice);\n    }\n\n    /**\n     * @dev Retrieve the latest price and decimal shift of the\n     * price oracle.\n     *\n     * @return (latest price, decimal shift)\n     */\n    function _oracleData() internal view returns (uint, uint) {\n        return (\n            IOracle(oracle).latestPrice(),\n            IOracle(oracle).decimalShift()\n        );\n    }\n}",
  "sourcePath": "/Users/alexroan/Documents/Projects/Blockchain/DApps/usm/contracts/USM.sol",
  "compiler": {
    "name": "solc",
    "version": "0.6.7+commit.b8d736ae.Linux.g++"
  },
  "schemaVersion": "3.2.3",
  "updatedAt": "2020-08-02T15:44:20.516Z",
  "devdoc": {
    "methods": {
      "allowance(address,address)": {
        "details": "See {IERC20-allowance}."
      },
      "approve(address,uint256)": {
        "details": "See {IERC20-approve}.     * Requirements:     * - `spender` cannot be the zero address."
      },
      "balanceOf(address)": {
        "details": "See {IERC20-balanceOf}."
      },
      "burn(uint256)": {
        "details": "Burn USM for ETH.",
        "params": {
          "_usmAmount": "Amount of USM to burn."
        }
      },
      "constructor": {
        "params": {
          "_oracle": "Address of the oracle"
        }
      },
      "decimals()": {
        "details": "Returns the number of decimals used to get its user representation. For example, if `decimals` equals `2`, a balance of `505` tokens should be displayed to a user as `5,05` (`505 / 10 ** 2`).     * Tokens usually opt for a value of 18, imitating the relationship between Ether and Wei. This is the value {ERC20} uses, unless {_setupDecimals} is called.     * NOTE: This information is only used for _display_ purposes: it in no way affects any of the arithmetic of the contract, including {IERC20-balanceOf} and {IERC20-transfer}."
      },
      "decreaseAllowance(address,uint256)": {
        "details": "Atomically decreases the allowance granted to `spender` by the caller.     * This is an alternative to {approve} that can be used as a mitigation for problems described in {IERC20-approve}.     * Emits an {Approval} event indicating the updated allowance.     * Requirements:     * - `spender` cannot be the zero address. - `spender` must have allowance for the caller of at least `subtractedValue`."
      },
      "increaseAllowance(address,uint256)": {
        "details": "Atomically increases the allowance granted to `spender` by the caller.     * This is an alternative to {approve} that can be used as a mitigation for problems described in {IERC20-approve}.     * Emits an {Approval} event indicating the updated allowance.     * Requirements:     * - `spender` cannot be the zero address."
      },
      "mint()": {
        "details": "Mint ETH for USM. Uses msg.value as the ETH deposit."
      },
      "name()": {
        "details": "Returns the name of the token."
      },
      "owner()": {
        "details": "Returns the address of the current owner."
      },
      "renounceOwnership()": {
        "details": "Leaves the contract without owner. It will not be possible to call `onlyOwner` functions anymore. Can only be called by the current owner.     * NOTE: Renouncing ownership will leave the contract without an owner, thereby removing any functionality that is only available to the owner."
      },
      "setOracle(address)": {
        "details": "Set the price oracle. Only Owner.",
        "params": {
          "_oracle": "Address of the oracle."
        }
      },
      "symbol()": {
        "details": "Returns the symbol of the token, usually a shorter version of the name."
      },
      "totalSupply()": {
        "details": "See {IERC20-totalSupply}."
      },
      "transfer(address,uint256)": {
        "details": "See {IERC20-transfer}.     * Requirements:     * - `recipient` cannot be the zero address. - the caller must have a balance of at least `amount`."
      },
      "transferFrom(address,address,uint256)": {
        "details": "See {IERC20-transferFrom}.     * Emits an {Approval} event indicating the updated allowance. This is not required by the EIP. See the note at the beginning of {ERC20};     * Requirements: - `sender` and `recipient` cannot be the zero address. - `sender` must have a balance of at least `amount`. - the caller must have allowance for ``sender``'s tokens of at least `amount`."
      },
      "transferOwnership(address)": {
        "details": "Transfers ownership of the contract to a new account (`newOwner`). Can only be called by the current owner."
      }
    }
  },
  "userdoc": {
    "methods": {}
  }
}