{
  "contractName": "USM",
  "abi": [
    {
      "inputs": [
        {
          "internalType": "address",
          "name": "_oracle",
          "type": "address"
        }
      ],
      "stateMutability": "nonpayable",
      "type": "constructor"
    },
    {
      "anonymous": false,
      "inputs": [
        {
          "indexed": true,
          "internalType": "address",
          "name": "owner",
          "type": "address"
        },
        {
          "indexed": true,
          "internalType": "address",
          "name": "spender",
          "type": "address"
        },
        {
          "indexed": false,
          "internalType": "uint256",
          "name": "value",
          "type": "uint256"
        }
      ],
      "name": "Approval",
      "type": "event"
    },
    {
      "anonymous": false,
      "inputs": [
        {
          "indexed": true,
          "internalType": "address",
          "name": "from",
          "type": "address"
        },
        {
          "indexed": true,
          "internalType": "address",
          "name": "to",
          "type": "address"
        },
        {
          "indexed": false,
          "internalType": "uint256",
          "name": "value",
          "type": "uint256"
        }
      ],
      "name": "Transfer",
      "type": "event"
    },
    {
      "inputs": [
        {
          "internalType": "address",
          "name": "owner",
          "type": "address"
        },
        {
          "internalType": "address",
          "name": "spender",
          "type": "address"
        }
      ],
      "name": "allowance",
      "outputs": [
        {
          "internalType": "uint256",
          "name": "",
          "type": "uint256"
        }
      ],
      "stateMutability": "view",
      "type": "function"
    },
    {
      "inputs": [
        {
          "internalType": "address",
          "name": "spender",
          "type": "address"
        },
        {
          "internalType": "uint256",
          "name": "amount",
          "type": "uint256"
        }
      ],
      "name": "approve",
      "outputs": [
        {
          "internalType": "bool",
          "name": "",
          "type": "bool"
        }
      ],
      "stateMutability": "nonpayable",
      "type": "function"
    },
    {
      "inputs": [
        {
          "internalType": "address",
          "name": "account",
          "type": "address"
        }
      ],
      "name": "balanceOf",
      "outputs": [
        {
          "internalType": "uint256",
          "name": "",
          "type": "uint256"
        }
      ],
      "stateMutability": "view",
      "type": "function"
    },
    {
      "inputs": [],
      "name": "decimals",
      "outputs": [
        {
          "internalType": "uint8",
          "name": "",
          "type": "uint8"
        }
      ],
      "stateMutability": "view",
      "type": "function"
    },
    {
      "inputs": [
        {
          "internalType": "address",
          "name": "spender",
          "type": "address"
        },
        {
          "internalType": "uint256",
          "name": "subtractedValue",
          "type": "uint256"
        }
      ],
      "name": "decreaseAllowance",
      "outputs": [
        {
          "internalType": "bool",
          "name": "",
          "type": "bool"
        }
      ],
      "stateMutability": "nonpayable",
      "type": "function"
    },
    {
      "inputs": [],
      "name": "ethPool",
      "outputs": [
        {
          "internalType": "uint256",
          "name": "",
          "type": "uint256"
        }
      ],
      "stateMutability": "view",
      "type": "function"
    },
    {
      "inputs": [
        {
          "internalType": "address",
          "name": "spender",
          "type": "address"
        },
        {
          "internalType": "uint256",
          "name": "addedValue",
          "type": "uint256"
        }
      ],
      "name": "increaseAllowance",
      "outputs": [
        {
          "internalType": "bool",
          "name": "",
          "type": "bool"
        }
      ],
      "stateMutability": "nonpayable",
      "type": "function"
    },
    {
      "inputs": [],
      "name": "name",
      "outputs": [
        {
          "internalType": "string",
          "name": "",
          "type": "string"
        }
      ],
      "stateMutability": "view",
      "type": "function"
    },
    {
      "inputs": [],
      "name": "symbol",
      "outputs": [
        {
          "internalType": "string",
          "name": "",
          "type": "string"
        }
      ],
      "stateMutability": "view",
      "type": "function"
    },
    {
      "inputs": [],
      "name": "totalSupply",
      "outputs": [
        {
          "internalType": "uint256",
          "name": "",
          "type": "uint256"
        }
      ],
      "stateMutability": "view",
      "type": "function"
    },
    {
      "inputs": [
        {
          "internalType": "address",
          "name": "recipient",
          "type": "address"
        },
        {
          "internalType": "uint256",
          "name": "amount",
          "type": "uint256"
        }
      ],
      "name": "transfer",
      "outputs": [
        {
          "internalType": "bool",
          "name": "",
          "type": "bool"
        }
      ],
      "stateMutability": "nonpayable",
      "type": "function"
    },
    {
      "inputs": [
        {
          "internalType": "address",
          "name": "sender",
          "type": "address"
        },
        {
          "internalType": "address",
          "name": "recipient",
          "type": "address"
        },
        {
          "internalType": "uint256",
          "name": "amount",
          "type": "uint256"
        }
      ],
      "name": "transferFrom",
      "outputs": [
        {
          "internalType": "bool",
          "name": "",
          "type": "bool"
        }
      ],
      "stateMutability": "nonpayable",
      "type": "function"
    },
    {
      "inputs": [],
      "name": "mint",
      "outputs": [],
      "stateMutability": "payable",
      "type": "function"
    },
    {
      "inputs": [
        {
          "internalType": "uint256",
          "name": "_usmAmount",
          "type": "uint256"
        }
      ],
      "name": "burn",
      "outputs": [],
      "stateMutability": "nonpayable",
      "type": "function"
    },
    {
      "inputs": [],
      "name": "debtRatio",
      "outputs": [
        {
          "internalType": "uint256",
          "name": "",
          "type": "uint256"
        }
      ],
      "stateMutability": "view",
      "type": "function"
    }
  ],
  "bytecode": "0x60806040523480156200001157600080fd5b506040516200204238038062002042833981810160405260208110156200003757600080fd5b81019080805190602001909291905050506040518060400160405280600b81526020017f4d696e696d616c205553440000000000000000000000000000000000000000008152506040518060400160405280600381526020017f55534d00000000000000000000000000000000000000000000000000000000008152508160039080519060200190620000cc92919062000154565b508060049080519060200190620000e592919062000154565b506012600560006101000a81548160ff021916908360ff160217905550505080600560016101000a81548173ffffffffffffffffffffffffffffffffffffffff021916908373ffffffffffffffffffffffffffffffffffffffff16021790555060006006819055505062000203565b828054600181600116156101000203166002900490600052602060002090601f016020900481019282601f106200019757805160ff1916838001178555620001c8565b82800160010185558215620001c8579182015b82811115620001c7578251825591602001919060010190620001aa565b5b509050620001d79190620001db565b5090565b6200020091905b80821115620001fc576000816000905550600101620001e2565b5090565b90565b611e2f80620002136000396000f3fe6080604052600436106100e85760003560e01c806342966c681161008a578063a9059cbb11610059578063a9059cbb146104ff578063cea55f5714610572578063dd62ed3e1461059d578063f16673a414610622576100e8565b806342966c681461035c57806370a082311461039757806395d89b41146103fc578063a457c2d71461048c576100e8565b806318160ddd116100c657806318160ddd146101fa57806323b872dd14610225578063313ce567146102b857806339509351146102e9576100e8565b806306fdde03146100ed578063095ea7b31461017d5780631249c58b146101f0575b600080fd5b3480156100f957600080fd5b5061010261064d565b6040518080602001828103825283818151815260200191508051906020019080838360005b83811015610142578082015181840152602081019050610127565b50505050905090810190601f16801561016f5780820380516001836020036101000a031916815260200191505b509250505060405180910390f35b34801561018957600080fd5b506101d6600480360360408110156101a057600080fd5b81019080803573ffffffffffffffffffffffffffffffffffffffff169060200190929190803590602001909291905050506106ef565b604051808215151515815260200191505060405180910390f35b6101f861070d565b005b34801561020657600080fd5b5061020f61074c565b6040518082815260200191505060405180910390f35b34801561023157600080fd5b5061029e6004803603606081101561024857600080fd5b81019080803573ffffffffffffffffffffffffffffffffffffffff169060200190929190803573ffffffffffffffffffffffffffffffffffffffff16906020019092919080359060200190929190505050610756565b604051808215151515815260200191505060405180910390f35b3480156102c457600080fd5b506102cd61082f565b604051808260ff1660ff16815260200191505060405180910390f35b3480156102f557600080fd5b506103426004803603604081101561030c57600080fd5b81019080803573ffffffffffffffffffffffffffffffffffffffff16906020019092919080359060200190929190505050610846565b604051808215151515815260200191505060405180910390f35b34801561036857600080fd5b506103956004803603602081101561037f57600080fd5b81019080803590602001909291905050506108f9565b005b3480156103a357600080fd5b506103e6600480360360208110156103ba57600080fd5b81019080803573ffffffffffffffffffffffffffffffffffffffff169060200190929190505050610943565b6040518082815260200191505060405180910390f35b34801561040857600080fd5b5061041161098b565b6040518080602001828103825283818151815260200191508051906020019080838360005b83811015610451578082015181840152602081019050610436565b50505050905090810190601f16801561047e5780820380516001836020036101000a031916815260200191505b509250505060405180910390f35b34801561049857600080fd5b506104e5600480360360408110156104af57600080fd5b81019080803573ffffffffffffffffffffffffffffffffffffffff16906020019092919080359060200190929190505050610a2d565b604051808215151515815260200191505060405180910390f35b34801561050b57600080fd5b506105586004803603604081101561052257600080fd5b81019080803573ffffffffffffffffffffffffffffffffffffffff16906020019092919080359060200190929190505050610afa565b604051808215151515815260200191505060405180910390f35b34801561057e57600080fd5b50610587610b18565b6040518082815260200191505060405180910390f35b3480156105a957600080fd5b5061060c600480360360408110156105c057600080fd5b81019080803573ffffffffffffffffffffffffffffffffffffffff169060200190929190803573ffffffffffffffffffffffffffffffffffffffff169060200190929190505050610b32565b6040518082815260200191505060405180910390f35b34801561062e57600080fd5b50610637610bb9565b6040518082815260200191505060405180910390f35b606060038054600181600116156101000203166002900480601f0160208091040260200160405190810160405280929190818152602001828054600181600116156101000203166002900480156106e55780601f106106ba576101008083540402835291602001916106e5565b820191906000526020600020905b8154815290600101906020018083116106c857829003601f168201915b5050505050905090565b60006107036106fc610bbf565b8484610bc7565b6001905092915050565b600061072261071b34610dbe565b600a610e75565b905061073934600654610f3290919063ffffffff16565b6006819055506107493382610fba565b50565b6000600254905090565b6000610763848484611181565b6108248461076f610bbf565b61081f85604051806060016040528060288152602001611d4360289139600160008b73ffffffffffffffffffffffffffffffffffffffff1673ffffffffffffffffffffffffffffffffffffffff16815260200190815260200160002060006107d5610bbf565b73ffffffffffffffffffffffffffffffffffffffff1673ffffffffffffffffffffffffffffffffffffffff168152602001908152602001600020546114429092919063ffffffff16565b610bc7565b600190509392505050565b6000600560009054906101000a900460ff16905090565b60006108ef610853610bbf565b846108ea8560016000610864610bbf565b73ffffffffffffffffffffffffffffffffffffffff1673ffffffffffffffffffffffffffffffffffffffff16815260200190815260200160002060008973ffffffffffffffffffffffffffffffffffffffff1673ffffffffffffffffffffffffffffffffffffffff16815260200190815260200160002054610f3290919063ffffffff16565b610bc7565b6001905092915050565b600061090e61090783611502565b6032610e75565b9050610925816006546115b990919063ffffffff16565b6006819055506109353383611603565b61093f33826117c7565b5050565b60008060008373ffffffffffffffffffffffffffffffffffffffff1673ffffffffffffffffffffffffffffffffffffffff168152602001908152602001600020549050919050565b606060048054600181600116156101000203166002900480601f016020809104026020016040519081016040528092919081815260200182805460018160011615610100020316600290048015610a235780601f106109f857610100808354040283529160200191610a23565b820191906000526020600020905b815481529060010190602001808311610a0657829003601f168201915b5050505050905090565b6000610af0610a3a610bbf565b84610aeb85604051806060016040528060258152602001611dd56025913960016000610a64610bbf565b73ffffffffffffffffffffffffffffffffffffffff1673ffffffffffffffffffffffffffffffffffffffff16815260200190815260200160002060008a73ffffffffffffffffffffffffffffffffffffffff1673ffffffffffffffffffffffffffffffffffffffff168152602001908152602001600020546114429092919063ffffffff16565b610bc7565b6001905092915050565b6000610b0e610b07610bbf565b8484611181565b6001905092915050565b6000610b2d600654610b2861074c565b611918565b905090565b6000600160008473ffffffffffffffffffffffffffffffffffffffff1673ffffffffffffffffffffffffffffffffffffffff16815260200190815260200160002060008373ffffffffffffffffffffffffffffffffffffffff1673ffffffffffffffffffffffffffffffffffffffff16815260200190815260200160002054905092915050565b60065481565b600033905090565b600073ffffffffffffffffffffffffffffffffffffffff168373ffffffffffffffffffffffffffffffffffffffff161415610c4d576040517f08c379a0000000000000000000000000000000000000000000000000000000008152600401808060200182810382526024815260200180611db16024913960400191505060405180910390fd5b600073ffffffffffffffffffffffffffffffffffffffff168273ffffffffffffffffffffffffffffffffffffffff161415610cd3576040517f08c379a0000000000000000000000000000000000000000000000000000000008152600401808060200182810382526022815260200180611ca06022913960400191505060405180910390fd5b80600160008573ffffffffffffffffffffffffffffffffffffffff1673ffffffffffffffffffffffffffffffffffffffff16815260200190815260200160002060008473ffffffffffffffffffffffffffffffffffffffff1673ffffffffffffffffffffffffffffffffffffffff168152602001908152602001600020819055508173ffffffffffffffffffffffffffffffffffffffff168373ffffffffffffffffffffffffffffffffffffffff167f8c5be1e5ebec7d5bd14f71427d1e84f3dd0314c0f7b2291e5b200ac8c7c3b925836040518082815260200191505060405180910390a3505050565b6000808211610e35576040517f08c379a000000000000000000000000000000000000000000000000000000000815260040180806020018281038252601e8152602001807f45746820416d6f756e74206d757374206265206d6f7265207468616e2030000081525060200191505060405180910390fd5b600080610e4061196e565b91509150610e6c81600a0a610e5e8685611abf90919063ffffffff16565b611b4590919063ffffffff16565b92505050919050565b600080610eb1610ea2612710610e948688611abf90919063ffffffff16565b611b4590919063ffffffff16565b856115b990919063ffffffff16565b9050838110610f28576040517f08c379a00000000000000000000000000000000000000000000000000000000081526004018080602001828103825260208152602001807f466565206d757374206d616b652074686520726573756c7420736d616c6c657281525060200191505060405180910390fd5b8091505092915050565b600080828401905083811015610fb0576040517f08c379a000000000000000000000000000000000000000000000000000000000815260040180806020018281038252601b8152602001807f536166654d6174683a206164646974696f6e206f766572666c6f77000000000081525060200191505060405180910390fd5b8091505092915050565b600073ffffffffffffffffffffffffffffffffffffffff168273ffffffffffffffffffffffffffffffffffffffff16141561105d576040517f08c379a000000000000000000000000000000000000000000000000000000000815260040180806020018281038252601f8152602001807f45524332303a206d696e7420746f20746865207a65726f20616464726573730081525060200191505060405180910390fd5b61106960008383611b8f565b61107e81600254610f3290919063ffffffff16565b6002819055506110d5816000808573ffffffffffffffffffffffffffffffffffffffff1673ffffffffffffffffffffffffffffffffffffffff16815260200190815260200160002054610f3290919063ffffffff16565b6000808473ffffffffffffffffffffffffffffffffffffffff1673ffffffffffffffffffffffffffffffffffffffff168152602001908152602001600020819055508173ffffffffffffffffffffffffffffffffffffffff16600073ffffffffffffffffffffffffffffffffffffffff167fddf252ad1be2c89b69c2b068fc378daa952ba7f163c4a11628f55a4df523b3ef836040518082815260200191505060405180910390a35050565b600073ffffffffffffffffffffffffffffffffffffffff168373ffffffffffffffffffffffffffffffffffffffff161415611207576040517f08c379a0000000000000000000000000000000000000000000000000000000008152600401808060200182810382526025815260200180611d8c6025913960400191505060405180910390fd5b600073ffffffffffffffffffffffffffffffffffffffff168273ffffffffffffffffffffffffffffffffffffffff16141561128d576040517f08c379a0000000000000000000000000000000000000000000000000000000008152600401808060200182810382526023815260200180611c5b6023913960400191505060405180910390fd5b611298838383611b8f565b61130381604051806060016040528060268152602001611cc2602691396000808773ffffffffffffffffffffffffffffffffffffffff1673ffffffffffffffffffffffffffffffffffffffff168152602001908152602001600020546114429092919063ffffffff16565b6000808573ffffffffffffffffffffffffffffffffffffffff1673ffffffffffffffffffffffffffffffffffffffff16815260200190815260200160002081905550611396816000808573ffffffffffffffffffffffffffffffffffffffff1673ffffffffffffffffffffffffffffffffffffffff16815260200190815260200160002054610f3290919063ffffffff16565b6000808473ffffffffffffffffffffffffffffffffffffffff1673ffffffffffffffffffffffffffffffffffffffff168152602001908152602001600020819055508173ffffffffffffffffffffffffffffffffffffffff168373ffffffffffffffffffffffffffffffffffffffff167fddf252ad1be2c89b69c2b068fc378daa952ba7f163c4a11628f55a4df523b3ef836040518082815260200191505060405180910390a3505050565b60008383111582906114ef576040517f08c379a00000000000000000000000000000000000000000000000000000000081526004018080602001828103825283818151815260200191508051906020019080838360005b838110156114b4578082015181840152602081019050611499565b50505050905090810190601f1680156114e15780820380516001836020036101000a031916815260200191505b509250505060405180910390fd5b5060008385039050809150509392505050565b6000808211611579576040517f08c379a000000000000000000000000000000000000000000000000000000000815260040180806020018281038252601e8152602001807f55534d20416d6f756e74206d757374206265206d6f7265207468616e2030000081525060200191505060405180910390fd5b60008061158461196e565b915091506115b0826115a283600a0a87611abf90919063ffffffff16565b611b4590919063ffffffff16565b92505050919050565b60006115fb83836040518060400160405280601e81526020017f536166654d6174683a207375627472616374696f6e206f766572666c6f770000815250611442565b905092915050565b600073ffffffffffffffffffffffffffffffffffffffff168273ffffffffffffffffffffffffffffffffffffffff161415611689576040517f08c379a0000000000000000000000000000000000000000000000000000000008152600401808060200182810382526021815260200180611d6b6021913960400191505060405180910390fd5b61169582600083611b8f565b61170081604051806060016040528060228152602001611c7e602291396000808673ffffffffffffffffffffffffffffffffffffffff1673ffffffffffffffffffffffffffffffffffffffff168152602001908152602001600020546114429092919063ffffffff16565b6000808473ffffffffffffffffffffffffffffffffffffffff1673ffffffffffffffffffffffffffffffffffffffff16815260200190815260200160002081905550611757816002546115b990919063ffffffff16565b600281905550600073ffffffffffffffffffffffffffffffffffffffff168273ffffffffffffffffffffffffffffffffffffffff167fddf252ad1be2c89b69c2b068fc378daa952ba7f163c4a11628f55a4df523b3ef836040518082815260200191505060405180910390a35050565b803073ffffffffffffffffffffffffffffffffffffffff16311015611854576040517f08c379a000000000000000000000000000000000000000000000000000000000815260040180806020018281038252601d8152602001807f416464726573733a20696e73756666696369656e742062616c616e636500000081525060200191505060405180910390fd5b60008273ffffffffffffffffffffffffffffffffffffffff168260405180600001905060006040518083038185875af1925050503d80600081146118b4576040519150601f19603f3d011682016040523d82523d6000602084013e6118b9565b606091505b5050905080611913576040517f08c379a000000000000000000000000000000000000000000000000000000000815260040180806020018281038252603a815260200180611ce8603a913960400191505060405180910390fd5b505050565b60008083141561192b5760009050611968565b61196561193784610dbe565b61195761194261082f565b60ff16600a0a85611abf90919063ffffffff16565b611b4590919063ffffffff16565b90505b92915050565b600080600560019054906101000a900473ffffffffffffffffffffffffffffffffffffffff1673ffffffffffffffffffffffffffffffffffffffff1663a3e6ba946040518163ffffffff1660e01b815260040160206040518083038186803b1580156119d957600080fd5b505afa1580156119ed573d6000803e3d6000fd5b505050506040513d6020811015611a0357600080fd5b8101908080519060200190929190505050600560019054906101000a900473ffffffffffffffffffffffffffffffffffffffff1673ffffffffffffffffffffffffffffffffffffffff1663dae5f0fd6040518163ffffffff1660e01b815260040160206040518083038186803b158015611a7c57600080fd5b505afa158015611a90573d6000803e3d6000fd5b505050506040513d6020811015611aa657600080fd5b8101908080519060200190929190505050915091509091565b600080831415611ad25760009050611b3f565b6000828402905082848281611ae357fe5b0414611b3a576040517f08c379a0000000000000000000000000000000000000000000000000000000008152600401808060200182810382526021815260200180611d226021913960400191505060405180910390fd5b809150505b92915050565b6000611b8783836040518060400160405280601a81526020017f536166654d6174683a206469766973696f6e206279207a65726f000000000000815250611b94565b905092915050565b505050565b60008083118290611c40576040517f08c379a00000000000000000000000000000000000000000000000000000000081526004018080602001828103825283818151815260200191508051906020019080838360005b83811015611c05578082015181840152602081019050611bea565b50505050905090810190601f168015611c325780820380516001836020036101000a031916815260200191505b509250505060405180910390fd5b506000838581611c4c57fe5b04905080915050939250505056fe45524332303a207472616e7366657220746f20746865207a65726f206164647265737345524332303a206275726e20616d6f756e7420657863656564732062616c616e636545524332303a20617070726f766520746f20746865207a65726f206164647265737345524332303a207472616e7366657220616d6f756e7420657863656564732062616c616e6365416464726573733a20756e61626c6520746f2073656e642076616c75652c20726563697069656e74206d61792068617665207265766572746564536166654d6174683a206d756c7469706c69636174696f6e206f766572666c6f7745524332303a207472616e7366657220616d6f756e74206578636565647320616c6c6f77616e636545524332303a206275726e2066726f6d20746865207a65726f206164647265737345524332303a207472616e736665722066726f6d20746865207a65726f206164647265737345524332303a20617070726f76652066726f6d20746865207a65726f206164647265737345524332303a2064656372656173656420616c6c6f77616e63652062656c6f77207a65726fa264697066735822122032223d0ca4a43094def5742ba92dd055de7fffb0d8a8f34c4d5d070943663d5b64736f6c63430006070033",
  "immutableReferences": {},
  "source": "pragma solidity ^0.6.7;\n\nimport \"@openzeppelin/contracts/token/ERC20/ERC20.sol\";\nimport \"@openzeppelin/contracts/math/SafeMath.sol\";\nimport \"./IOracle.sol\";\n\n/**\n * @title USM Stable Coin\n * @author Alex Roan (@alexroan)\n * @notice Concept by Jacob Eliosoff (@jacob-eliosoff)\n */\ncontract USM is ERC20 {\n    using SafeMath for uint;\n\n    // 0.1% (10 parts per 10,000)\n    uint constant MINT_FEE = 10;\n    // 0.5%; (50 parts per 10,000)\n    uint constant BURN_FEE = 50;\n    uint constant PERCENTAGE_BASE = 10000;\n\n    address oracle;\n    uint public ethPool;\n\n    /**\n     * @param _oracle Address of the oracle\n     */\n    constructor(address _oracle) public ERC20(\"Minimal USD\", \"USM\") {\n        oracle = _oracle;\n        ethPool = 0;\n    }\n\n    /**\n     * @notice Mint ETH for USM. Uses msg.value as the ETH deposit.\n     */\n    function mint() external payable {\n        uint usmAmount = _applyFee(_ethToUsm(msg.value), MINT_FEE);\n        ethPool = ethPool.add(msg.value);\n        _mint(msg.sender, usmAmount);\n    }\n\n    /**\n     * @notice Burn USM for ETH.\n     *\n     * @param _usmAmount Amount of USM to burn.\n     */\n    function burn(uint _usmAmount) external {\n        uint ethAmount = _applyFee(_usmToEth(_usmAmount), BURN_FEE);\n        ethPool = ethPool.sub(ethAmount);\n        _burn(msg.sender, _usmAmount);\n        Address.sendValue(msg.sender, ethAmount);\n    }\n\n    /**\n     * @notice Calculate debt ratio of the current Eth pool amount and outstanding USM\n     * (the amount of USM in total supply).\n     *\n     * @return Debt ratio decimal percentage *(10**decimals()). For example, 100%\n     * is denoted as 1,000,000,000,000,000,000 (1 with 18 zeros).\n     */\n    function debtRatio() external view returns (uint) {\n        return _debtRatio(ethPool, totalSupply());\n    }\n\n    /**\n     * @notice Calculate debt ratio of an Eth pool amount and outstanding USM\n     * (the amount of USM in total supply).\n     *\n     * @param _ethPool Amount of Eth in the pool.\n     * @param _usmOutstanding Amount of USM in total supply.\n     * @return Debt ratio decimal percentage *(10**decimals()). For example, 100%\n     * is denoted as 1,000,000,000,000,000,000 (1 with 18 zeros).\n     */\n    function _debtRatio(uint _ethPool, uint _usmOutstanding) internal view returns (uint) {\n        if (_ethPool == 0) {\n            return 0;\n        }\n        return _usmOutstanding.mul(10**uint(decimals())).div(_ethToUsm(_ethPool));\n    }\n\n    /**\n     * @notice Apply fees to a number, the result being the number, minus the\n     * percentage fee.\n     *\n     * @param _number The amount that the fee is being applied to\n     * @param _feePercentage Percentage fee to be subtracted from the number\n     * in parts per 10,000.\n     * @return The result of the _number minus the percentage fee.\n     */\n    function _applyFee(uint _number, uint _feePercentage) internal pure returns (uint) {\n        uint result = _number.sub((_number.mul(_feePercentage)).div(PERCENTAGE_BASE));\n        require(result < _number, \"Fee must make the result smaller\");\n        return result;\n    }\n\n    /**\n     * @notice Convert ETH amount to USM using the latest price of USM\n     * in ETH.\n     *\n     * @param _ethAmount The amount of ETH to convert.\n     * @return The amount of USM.\n     */\n    function _ethToUsm(uint _ethAmount) internal view returns (uint) {\n        require(_ethAmount > 0, \"Eth Amount must be more than 0\");\n        (uint usdPrice, uint decimalShift) = _oracleData();\n        return usdPrice.mul(_ethAmount).div(10**decimalShift);\n    }\n\n    /**\n     * @notice Convert USM amount to ETH using the latest price of USM\n     * in ETH.\n     *\n     * @param _usmAmount The amount of USM to convert.\n     * @return The amount of ETH.\n     */\n    function _usmToEth(uint _usmAmount) internal view returns (uint) {\n        require(_usmAmount > 0, \"USM Amount must be more than 0\");\n        (uint usdPrice, uint decimalShift) = _oracleData();\n        return (_usmAmount.mul(10**decimalShift)).div(usdPrice);\n    }\n\n    /**\n     * @notice Retrieve the latest price and decimal shift of the\n     * price oracle.\n     *\n     * @return (latest price, decimal shift)\n     */\n    function _oracleData() internal view returns (uint, uint) {\n        return (\n            IOracle(oracle).latestPrice(),\n            IOracle(oracle).decimalShift()\n        );\n    }\n}",
  "sourcePath": "/Users/alexroan/Documents/Projects/Blockchain/DApps/usm/contracts/USM.sol",
  "compiler": {
    "name": "solc",
    "version": "0.6.7+commit.b8d736ae.Linux.g++"
  },
  "schemaVersion": "3.2.3",
  "updatedAt": "2020-08-03T22:32:57.607Z",
  "devdoc": {
    "author": "Alex Roan (@alexroan)",
    "methods": {
      "allowance(address,address)": {
        "details": "See {IERC20-allowance}."
      },
      "approve(address,uint256)": {
        "details": "See {IERC20-approve}.     * Requirements:     * - `spender` cannot be the zero address."
      },
      "balanceOf(address)": {
        "details": "See {IERC20-balanceOf}."
      },
      "burn(uint256)": {
        "params": {
          "_usmAmount": "Amount of USM to burn."
        }
      },
      "constructor": {
        "params": {
          "_oracle": "Address of the oracle"
        }
      },
      "decimals()": {
        "details": "Returns the number of decimals used to get its user representation. For example, if `decimals` equals `2`, a balance of `505` tokens should be displayed to a user as `5,05` (`505 / 10 ** 2`).     * Tokens usually opt for a value of 18, imitating the relationship between Ether and Wei. This is the value {ERC20} uses, unless {_setupDecimals} is called.     * NOTE: This information is only used for _display_ purposes: it in no way affects any of the arithmetic of the contract, including {IERC20-balanceOf} and {IERC20-transfer}."
      },
      "decreaseAllowance(address,uint256)": {
        "details": "Atomically decreases the allowance granted to `spender` by the caller.     * This is an alternative to {approve} that can be used as a mitigation for problems described in {IERC20-approve}.     * Emits an {Approval} event indicating the updated allowance.     * Requirements:     * - `spender` cannot be the zero address. - `spender` must have allowance for the caller of at least `subtractedValue`."
      },
      "increaseAllowance(address,uint256)": {
        "details": "Atomically increases the allowance granted to `spender` by the caller.     * This is an alternative to {approve} that can be used as a mitigation for problems described in {IERC20-approve}.     * Emits an {Approval} event indicating the updated allowance.     * Requirements:     * - `spender` cannot be the zero address."
      },
      "name()": {
        "details": "Returns the name of the token."
      },
      "symbol()": {
        "details": "Returns the symbol of the token, usually a shorter version of the name."
      },
      "totalSupply()": {
        "details": "See {IERC20-totalSupply}."
      },
      "transfer(address,uint256)": {
        "details": "See {IERC20-transfer}.     * Requirements:     * - `recipient` cannot be the zero address. - the caller must have a balance of at least `amount`."
      },
      "transferFrom(address,address,uint256)": {
        "details": "See {IERC20-transferFrom}.     * Emits an {Approval} event indicating the updated allowance. This is not required by the EIP. See the note at the beginning of {ERC20};     * Requirements: - `sender` and `recipient` cannot be the zero address. - `sender` must have a balance of at least `amount`. - the caller must have allowance for ``sender``'s tokens of at least `amount`."
      }
    },
    "title": "USM Stable Coin"
  },
  "userdoc": {
    "methods": {
      "burn(uint256)": {
        "notice": "Burn USM for ETH."
      },
      "debtRatio()": {
        "notice": "Calculate debt ratio of the current Eth pool amount and outstanding USM (the amount of USM in total supply)."
      },
      "mint()": {
        "notice": "Mint ETH for USM. Uses msg.value as the ETH deposit."
      }
    },
    "notice": "Concept by Jacob Eliosoff (@jacob-eliosoff)"
  }
}